{
	"data": {
		"bytecode": {
			"linkReferences": {},
			"object": "6080604052670de0b6b3a76400006009553480156200001d57600080fd5b506040516200373438038062003734833981810160405281019062000043919062000301565b82600360006101000a81548173ffffffffffffffffffffffffffffffffffffffff021916908373ffffffffffffffffffffffffffffffffffffffff1602179055508360056000820151816000019080519060200190620000a59291906200012d565b5060208201518160010160006101000a81548160ff02191690831515021790555090505081600160006101000a81548173ffffffffffffffffffffffffffffffffffffffff021916908373ffffffffffffffffffffffffffffffffffffffff1602179055508060009080519060200190620001229291906200012d565b5050505050620005b3565b8280546200013b9062000486565b90600052602060002090601f0160209004810192826200015f5760008555620001ab565b82601f106200017a57805160ff1916838001178555620001ab565b82800160010185558215620001ab579182015b82811115620001aa5782518255916020019190600101906200018d565b5b509050620001ba9190620001be565b5090565b5b80821115620001d9576000816000905550600101620001bf565b5090565b6000620001f4620001ee84620003da565b620003b1565b9050828152602081018484840111156200021357620002126200055f565b5b6200022084828562000450565b509392505050565b60008151905062000239816200057f565b92915050565b600081519050620002508162000599565b92915050565b600082601f8301126200026e576200026d62000550565b5b815162000280848260208601620001dd565b91505092915050565b600060408284031215620002a257620002a162000555565b5b620002ae6040620003b1565b9050600082015167ffffffffffffffff811115620002d157620002d06200055a565b5b620002df8482850162000256565b6000830152506020620002f5848285016200023f565b60208301525092915050565b600080600080608085870312156200031e576200031d62000569565b5b600085015167ffffffffffffffff8111156200033f576200033e62000564565b5b6200034d8782880162000289565b9450506020620003608782880162000228565b9350506040620003738782880162000228565b925050606085015167ffffffffffffffff81111562000397576200039662000564565b5b620003a58782880162000256565b91505092959194509250565b6000620003bd620003d0565b9050620003cb8282620004bc565b919050565b6000604051905090565b600067ffffffffffffffff821115620003f857620003f762000521565b5b62000403826200056e565b9050602081019050919050565b60006200041d8262000430565b9050919050565b60008115159050919050565b600073ffffffffffffffffffffffffffffffffffffffff82169050919050565b60005b838110156200047057808201518184015260208101905062000453565b8381111562000480576000848401525b50505050565b600060028204905060018216806200049f57607f821691505b60208210811415620004b657620004b5620004f2565b5b50919050565b620004c7826200056e565b810181811067ffffffffffffffff82111715620004e957620004e862000521565b5b80604052505050565b7f4e487b7100000000000000000000000000000000000000000000000000000000600052602260045260246000fd5b7f4e487b7100000000000000000000000000000000000000000000000000000000600052604160045260246000fd5b600080fd5b600080fd5b600080fd5b600080fd5b600080fd5b600080fd5b6000601f19601f8301169050919050565b6200058a8162000410565b81146200059657600080fd5b50565b620005a48162000424565b8114620005b057600080fd5b50565b61317180620005c36000396000f3fe6080604052600436106100c25760003560e01c8063617df5d11161007f578063a908d70011610059578063a908d70014610283578063b933f574146102ae578063d1bfd337146102da578063f126148d14610303576100c2565b8063617df5d1146101de5780636d4b76d5146102095780639d64374014610246576100c2565b80630588565f146100c757806306fdde03146100f057806312065fe01461011b5780631bff12851461014657806331335555146101645780636124d80a146101a1575b600080fd5b3480156100d357600080fd5b506100ee60048036038101906100e9919061200f565b61032e565b005b3480156100fc57600080fd5b506101056103ec565b604051610112919061265c565b60405180910390f35b34801561012757600080fd5b5061013061047a565b60405161013d9190612790565b60405180910390f35b61014e61048f565b60405161015b9190612641565b60405180910390f35b34801561017057600080fd5b5061018b60048036038101906101869190611fe2565b610843565b6040516101989190612641565b60405180910390f35b3480156101ad57600080fd5b506101c860048036038101906101c3919061203c565b610863565b6040516101d5919061265c565b60405180910390f35b3480156101ea57600080fd5b506101f361086a565b6040516102009190612790565b60405180910390f35b34801561021557600080fd5b50610230600480360381019061022b919061216a565b610931565b60405161023d9190612604565b60405180910390f35b34801561025257600080fd5b5061026d60048036038101906102689190611fe2565b610970565b60405161027a9190612641565b60405180910390f35b34801561028f57600080fd5b506102986109c6565b6040516102a5919061261f565b60405180910390f35b3480156102ba57600080fd5b506102c3610a54565b6040516102d192919061267e565b60405180910390f35b3480156102e657600080fd5b5061030160048036038101906102fc91906120d8565b610afb565b005b34801561030f57600080fd5b50610318610afe565b60405161032591906125e9565b60405180910390f35b6002819080600181540180825580915050600190039060005260206000200160009091909190916101000a81548173ffffffffffffffffffffffffffffffffffffffff021916908373ffffffffffffffffffffffffffffffffffffffff1602179055506001600460008373ffffffffffffffffffffffffffffffffffffffff1673ffffffffffffffffffffffffffffffffffffffff16815260200190815260200160002060006101000a81548160ff02191690831515021790555050565b600080546103f990612cf0565b80601f016020809104026020016040519081016040528092919081815260200182805461042590612cf0565b80156104725780601f1061044757610100808354040283529160200191610472565b820191906000526020600020905b81548152906001019060200180831161045557829003601f168201915b505050505081565b610482611cbc565b61048a610b24565b905090565b6000600360009054906101000a900473ffffffffffffffffffffffffffffffffffffffff1673ffffffffffffffffffffffffffffffffffffffff163373ffffffffffffffffffffffffffffffffffffffff1614610521576040517f08c379a000000000000000000000000000000000000000000000000000000000815260040161051890612770565b60405180910390fd5b600954341015610566576040517f08c379a000000000000000000000000000000000000000000000000000000000815260040161055d90612710565b60405180910390fd5b6000600160009054906101000a900473ffffffffffffffffffffffffffffffffffffffff16905060008173ffffffffffffffffffffffffffffffffffffffff166301df10966040518163ffffffff1660e01b8152600401600060405180830381600087803b1580156105d757600080fd5b505af11580156105eb573d6000803e3d6000fd5b505050506040513d6000823e3d601f19601f820116820180604052508101906106149190612121565b9050806000015161065a576040517f08c379a0000000000000000000000000000000000000000000000000000000008152600401610651906126f0565b60405180910390fd5b8173ffffffffffffffffffffffffffffffffffffffff1663dd5f871f60056040518263ffffffff1660e01b815260040161069491906127b2565b600060405180830381600087803b1580156106ae57600080fd5b505af11580156106c2573d6000803e3d6000fd5b50505050600060646005346106d79190612b6f565b6106e191906129cd565b9050600160009054906101000a900473ffffffffffffffffffffffffffffffffffffffff1673ffffffffffffffffffffffffffffffffffffffff166108fc829081150290604051600060405180830381858888f1935050505015801561074b573d6000803e3d6000fd5b506000813461075a9190612bc9565b905060006002805490508261076f91906129cd565b9050600280549050816107829190612b6f565b82101561078e57600080fd5b60005b60028054905081101561083657600281815481106107b2576107b1612ec7565b5b9060005260206000200160009054906101000a900473ffffffffffffffffffffffffffffffffffffffff1673ffffffffffffffffffffffffffffffffffffffff166108fc839081150290604051600060405180830381858888f19350505050158015610822573d6000803e3d6000fd5b50808061082e90612d6d565b915050610791565b5060019550505050505090565b60046020528060005260406000206000915054906101000a900460ff1681565b6060919050565b610872611cbc565b600560405180604001604052908160008201805461088f90612cf0565b80601f01602080910402602001604051908101604052809291908181526020018280546108bb90612cf0565b80156109085780601f106108dd57610100808354040283529160200191610908565b820191906000526020600020905b8154815290600101906020018083116108eb57829003601f168201915b505050505081526020016001820160009054906101000a900460ff161515151581525050905090565b6002818154811061094157600080fd5b906000526020600020016000915054906101000a900473ffffffffffffffffffffffffffffffffffffffff1681565b6000600460008373ffffffffffffffffffffffffffffffffffffffff1673ffffffffffffffffffffffffffffffffffffffff16815260200190815260200160002060009054906101000a900460ff169050919050565b60606002805480602002602001604051908101604052809291908181526020018280548015610a4a57602002820191906000526020600020905b8160009054906101000a900473ffffffffffffffffffffffffffffffffffffffff1673ffffffffffffffffffffffffffffffffffffffff1681526020019060010190808311610a00575b5050505050905090565b6007806000018054610a6590612cf0565b80601f0160208091040260200160405190810160405280929190818152602001828054610a9190612cf0565b8015610ade5780601f10610ab357610100808354040283529160200191610ade565b820191906000526020600020905b815481529060010190602001808311610ac157829003601f168201915b5050505050908060010160009054906101000a900460ff16905082565b50565b600360009054906101000a900473ffffffffffffffffffffffffffffffffffffffff1681565b610b2c611cbc565b600030604051602001610b3f9190612595565b6040516020818303038152906040529050610b5981610b5f565b91505090565b610b67611cbc565b6000610b7283610bde565b90506000610bbc63c26ddbd56040518060400160405280600281526020017e0700000000000000000000000000000000000000000000000000000000000081525084607134610c12565b90506000610bc982610d4d565b9050610bd481610e3e565b9350505050919050565b60606000610bec6040610efa565b9050610c018382610f2190919063ffffffff16565b610c0a81610f4a565b915050919050565b606060008073fe0000000000000000000000000000000000000373ffffffffffffffffffffffffffffffffffffffff1688856000888a8c604051602001610c5e969594939291906127d4565b604051602081830303815290604052604051610c7a91906125b0565b600060405180830381855af49150503d8060008114610cb5576040519150601f19603f3d011682016040523d82523d6000602084013e610cba565b606091505b509150915060011515821515146040518060400160405280601181526020017f6163746f722063616c6c206661696c656400000000000000000000000000000081525090610d3e576040517f08c379a0000000000000000000000000000000000000000000000000000000008152600401610d3591906126ae565b60405180910390fd5b50809250505095945050505050565b6060600080600084806020019051810190610d689190612069565b925092509250600067ffffffffffffffff168267ffffffffffffffff161480610da55750607167ffffffffffffffff168267ffffffffffffffff16145b610de4576040517f08c379a0000000000000000000000000000000000000000000000000000000008152600401610ddb90612730565b60405180910390fd5b60008314610df184610fa3565b90610e32576040517f08c379a0000000000000000000000000000000000000000000000000000000008152600401610e2991906126ae565b60405180910390fd5b50809350505050919050565b610e46611cbc565b606060008084511115610e8b57610e668185610fd490919063ffffffff16565b8092508193505050600082511115610e8a57610e818261117f565b92505050610ef5565b5b6040518060400160405280600067ffffffffffffffff811115610eb157610eb0612ef6565b5b6040519080825280601f01601f191660200182016040528015610ee35781602001600182028036833780820191505090505b50815260200160001515815250925050505b919050565b610f02611cd8565b610f10816000015183611328565b506000816020018181525050919050565b610f2e82600283516113a1565b610f4581836000015161154a90919063ffffffff16565b505050565b60606000826020015114610f93576040517f08c379a0000000000000000000000000000000000000000000000000000000008152600401610f8a90612750565b60405180910390fd5b8160000151600001519050919050565b6060610fae82611566565b604051602001610fbe91906125c7565b6040516020818303038152906040529050919050565b60606000806000610fe5868661163e565b8167ffffffffffffffff169150809750819350829450505050600660ff168260ff1614806110195750600260ff168260ff16145b61102657611025612e0b565b5b600660ff168260ff1614156110705761103f868661163e565b8167ffffffffffffffff169150809750819350829450505050600260ff168260ff161461106f5761106e612e0b565b5b5b6000818661107e9190612977565b905060008267ffffffffffffffff81111561109c5761109b612ef6565b5b6040519080825280601f01601f1916602001820160405280156110ce5781602001600182028036833780820191505090505b5090506000808890505b83811015611161578981815181106110f3576110f2612ec7565b5b602001015160f81c60f81b83838151811061111157611110612ec7565b5b60200101907effffffffffffffffffffffffffffffffffffffffffffffffffffffffffffff1916908160001a905350818061114b90612d6d565b925050808061115990612d6d565b9150506110d8565b5081848961116f9190612977565b9650965050505050509250929050565b611187611cbc565b6000825114156111c657604051806040016040528060405180604001604052806001815260200160008152508152602001600015158152509050611323565b6000600183516111d69190612bc9565b67ffffffffffffffff8111156111ef576111ee612ef6565b5b6040519080825280601f01601f1916602001820160405280156112215781602001600182028036833780820191505090505b5090506000600160f81b8460008151811061123f5761123e612ec7565b5b602001015160f81c60f81b7effffffffffffffffffffffffffffffffffffffffffffffffffffffffffffff1916141561127757600190505b6000600190505b84518110156113065784818151811061129a57611299612ec7565b5b602001015160f81c60f81b836001836112b39190612bc9565b815181106112c4576112c3612ec7565b5b60200101907effffffffffffffffffffffffffffffffffffffffffffffffffffffffffffff1916908160001a90535080806112fe90612d6d565b91505061127e565b506040518060400160405280838152602001821515815250925050505b919050565b611330611cf8565b600060208361133f9190612dda565b1461136b576020826113519190612dda565b602061135d9190612bc9565b826113689190612977565b91505b81836020018181525050604051808452600081528281016020018181101561139257600080fd5b80604052505082905092915050565b60178167ffffffffffffffff16116113dc576113d68160058460ff16901b60ff161784600001516117cf90919063ffffffff16565b50611545565b60ff8167ffffffffffffffff161161143a5761140f601860058460ff16901b1784600001516117cf90919063ffffffff16565b506114348167ffffffffffffffff16600185600001516118399092919063ffffffff16565b50611544565b61ffff8167ffffffffffffffff16116114995761146e601960058460ff16901b1784600001516117cf90919063ffffffff16565b506114938167ffffffffffffffff16600285600001516118399092919063ffffffff16565b50611543565b63ffffffff8167ffffffffffffffff16116114fa576114cf601a60058460ff16901b1784600001516117cf90919063ffffffff16565b506114f48167ffffffffffffffff16600485600001516118399092919063ffffffff16565b50611542565b61151b601b60058460ff16901b1784600001516117cf90919063ffffffff16565b506115408167ffffffffffffffff16600885600001516118399092919063ffffffff16565b505b5b5b5b505050565b611552611cf8565b61155e838384516118c6565b905092915050565b606060006001611575846119a9565b01905060008167ffffffffffffffff81111561159457611593612ef6565b5b6040519080825280601f01601f1916602001820160405280156115c65781602001600182028036833780820191505090505b509050600082602001820190505b600115611633578080600190039150507f3031323334353637383961626364656600000000000000000000000000000000600a86061a8153600a858161161d5761161c612e69565b5b049450600085141561162e57611633565b6115d4565b819350505050919050565b60008060008061164e8686611afc565b905060018561165d9190612977565b94506000600560e0831660ff16901c90506000601f83169050601c8160ff161061168a57611689612e0b565b5b60188160ff1610156116ad578181888160ff1691509550955095505050506117c8565b60188160ff1614156117035760006116c58989611afc565b90506001886116d49190612977565b975060188160ff1610156116eb576116ea612e0b565b5b8281898160ff169150965096509650505050506117c8565b60198160ff16141561174557600061171b8989611b63565b905060028861172a9190612977565b97508281898161ffff169150965096509650505050506117c8565b601a8160ff16141561178957600061175d8989611bca565b905060048861176c9190612977565b97508281898163ffffffff169150965096509650505050506117c8565b601b8160ff161461179d5761179c612e0b565b5b60006117a98989611c31565b90506008886117b89190612977565b9750828189965096509650505050505b9250925092565b6117d7611cf8565b6000836000015151905060006001826117f09190612977565b905084602001518210611814576118138560028361180e9190612b6f565b611c98565b5b8451602083820101858153815183111561182c578282525b5050849250505092915050565b611841611cf8565b60008460000151519050600081846118599190612977565b9050856020015181111561187e5761187d866002836118789190612b6f565b611c98565b5b60006001856101006118909190612a51565b61189a9190612bc9565b9050865182810187831982511617815281518411156118b7578382525b50508693505050509392505050565b6118ce611cf8565b82518211156118dc57600080fd5b60008460000151519050600083826118f49190612977565b9050856020015181111561191957611918866002836119139190612b6f565b611c98565b5b60008087518051856020830101935080851115611934578482525b60208901925050505b6020861061197b57805182526020826119569190612977565b91506020816119659190612977565b90506020866119749190612bc9565b955061193d565b60006001876020036101000a0390508019825116818451168181178552505050879450505050509392505050565b600080600090507a184f03e93ff9f4daa797ed6e38ed64bf6a1f0100000000000000008310611a07577a184f03e93ff9f4daa797ed6e38ed64bf6a1f01000000000000000083816119fd576119fc612e69565b5b0492506040810190505b6d04ee2d6d415b85acef81000000008310611a44576d04ee2d6d415b85acef81000000008381611a3a57611a39612e69565b5b0492506020810190505b662386f26fc100008310611a7357662386f26fc100008381611a6957611a68612e69565b5b0492506010810190505b6305f5e1008310611a9c576305f5e1008381611a9257611a91612e69565b5b0492506008810190505b6127108310611ac1576127108381611ab757611ab6612e69565b5b0492506004810190505b60648310611ae45760648381611ada57611ad9612e69565b5b0492506002810190505b600a8310611af3576001810190505b80915050919050565b6000600182611b0b9190612977565b83511015611b4e576040517f08c379a0000000000000000000000000000000000000000000000000000000008152600401611b45906126d0565b60405180910390fd5b60008260010184015190508091505092915050565b6000600282611b729190612977565b83511015611bb5576040517f08c379a0000000000000000000000000000000000000000000000000000000008152600401611bac906126d0565b60405180910390fd5b60008260020184015190508091505092915050565b6000600482611bd99190612977565b83511015611c1c576040517f08c379a0000000000000000000000000000000000000000000000000000000008152600401611c13906126d0565b60405180910390fd5b60008260040184015190508091505092915050565b6000600882611c409190612977565b83511015611c83576040517f08c379a0000000000000000000000000000000000000000000000000000000008152600401611c7a906126d0565b60405180910390fd5b60008260080184015190508091505092915050565b600082600001519050611cab8383611328565b50611cb6838261154a565b50505050565b6040518060400160405280606081526020016000151581525090565b6040518060400160405280611ceb611cf8565b8152602001600081525090565b604051806040016040528060608152602001600081525090565b6000611d25611d2084612868565b612843565b905082815260208101848484011115611d4157611d40612f34565b5b611d4c848285612cae565b509392505050565b6000611d67611d6284612868565b612843565b905082815260208101848484011115611d8357611d82612f34565b5b611d8e848285612cbd565b509392505050565b6000611da9611da484612899565b612843565b905082815260208101848484011115611dc557611dc4612f34565b5b611dd0848285612cbd565b509392505050565b600081359050611de78161309a565b92915050565b600081359050611dfc816130b1565b92915050565b600081359050611e11816130c8565b92915050565b600081519050611e26816130c8565b92915050565b600081359050611e3b816130df565b92915050565b600082601f830112611e5657611e55612f25565b5b8135611e66848260208601611d12565b91505092915050565b600082601f830112611e8457611e83612f25565b5b8151611e94848260208601611d54565b91505092915050565b600081519050611eac816130f6565b92915050565b600082601f830112611ec757611ec6612f25565b5b8151611ed7848260208601611d96565b91505092915050565b600060408284031215611ef657611ef5612f2a565b5b611f006040612843565b9050600082013567ffffffffffffffff811115611f2057611f1f612f2f565b5b611f2c84828501611e41565b6000830152506020611f4084828501611e02565b60208301525092915050565b600060408284031215611f6257611f61612f2a565b5b611f6c6040612843565b90506000611f7c84828501611e17565b600083015250602082015167ffffffffffffffff811115611fa057611f9f612f2f565b5b611fac84828501611eb2565b60208301525092915050565b600081359050611fc78161310d565b92915050565b600081519050611fdc81613124565b92915050565b600060208284031215611ff857611ff7612f3e565b5b600061200684828501611dd8565b91505092915050565b60006020828403121561202557612024612f3e565b5b600061203384828501611ded565b91505092915050565b60006020828403121561205257612051612f3e565b5b600061206084828501611e2c565b91505092915050565b60008060006060848603121561208257612081612f3e565b5b600061209086828701611e9d565b93505060206120a186828701611fcd565b925050604084015167ffffffffffffffff8111156120c2576120c1612f39565b5b6120ce86828701611e6f565b9150509250925092565b6000602082840312156120ee576120ed612f3e565b5b600082013567ffffffffffffffff81111561210c5761210b612f39565b5b61211884828501611ee0565b91505092915050565b60006020828403121561213757612136612f3e565b5b600082015167ffffffffffffffff81111561215557612154612f39565b5b61216184828501611f4c565b91505092915050565b6000602082840312156121805761217f612f3e565b5b600061218e84828501611fb8565b91505092915050565b60006121a383836121af565b60208301905092915050565b6121b881612c1c565b82525050565b6121c781612c1c565b82525050565b6121d681612c0a565b82525050565b6121ed6121e882612c0a565b612db6565b82525050565b60006121fe826128ef565b612208818561291d565b9350612213836128ca565b8060005b8381101561224457815161222b8882612197565b975061223683612910565b925050600181019050612217565b5085935050505092915050565b61225a81612c2e565b82525050565b61226981612c2e565b82525050565b600061227a826128fa565b612284818561292e565b9350612294818560208601612cbd565b61229d81612f43565b840191505092915050565b60006122b3826128fa565b6122bd818561293f565b93506122cd818560208601612cbd565b6122d681612f43565b840191505092915050565b60006122ec826128fa565b6122f68185612950565b9350612306818560208601612cbd565b80840191505092915050565b6000815461231f81612cf0565b612329818661292e565b94506001821660008114612344576001811461235657612389565b60ff1983168652602086019350612389565b61235f856128da565b60005b8381101561238157815481890152600182019150602081019050612362565b808801955050505b50505092915050565b600061239d82612905565b6123a7818561295b565b93506123b7818560208601612cbd565b6123c081612f43565b840191505092915050565b60006123d682612905565b6123e0818561296c565b93506123f0818560208601612cbd565b80840191505092915050565b600061240960148361295b565b915061241482612f7b565b602082019050919050565b600061242c60158361295b565b915061243782612fa4565b602082019050919050565b600061244f600b8361295b565b915061245a82612fcd565b602082019050919050565b6000612472601c8361295b565b915061247d82612ff6565b602082019050919050565b600061249560128361296c565b91506124a08261301f565b601282019050919050565b60006124b8600c8361295b565b91506124c382613048565b602082019050919050565b60006124db600a8361295b565b91506124e682613071565b602082019050919050565b6000604083016000830151848203600086015261250e828261226f565b91505060208301516125236020860182612251565b508091505092915050565b6000604083016000808401858303600087015261254b8382612312565b9250506001840154905061255e81612d22565b61256b6020870182612251565b50819250505092915050565b61258081612c90565b82525050565b61258f81612c9a565b82525050565b60006125a182846121dc565b60148201915081905092915050565b60006125bc82846122e1565b915081905092915050565b60006125d282612488565b91506125de82846123cb565b915081905092915050565b60006020820190506125fe60008301846121cd565b92915050565b600060208201905061261960008301846121be565b92915050565b6000602082019050818103600083015261263981846121f3565b905092915050565b60006020820190506126566000830184612260565b92915050565b6000602082019050818103600083015261267681846122a8565b905092915050565b6000604082019050818103600083015261269881856122a8565b90506126a76020830184612260565b9392505050565b600060208201905081810360008301526126c88184612392565b905092915050565b600060208201905081810360008301526126e9816123fc565b9050919050565b600060208201905081810360008301526127098161241f565b9050919050565b6000602082019050818103600083015261272981612442565b9050919050565b6000602082019050818103600083015261274981612465565b9050919050565b60006020820190508181036000830152612769816124ab565b9050919050565b60006020820190508181036000830152612789816124ce565b9050919050565b600060208201905081810360008301526127aa81846124f1565b905092915050565b600060208201905081810360008301526127cc818461252e565b905092915050565b600060c0820190506127e96000830189612586565b6127f66020830188612577565b6128036040830187612586565b6128106060830186612586565b818103608083015261282281856122a8565b905081810360a083015261283681846122a8565b9050979650505050505050565b600061284d61285e565b90506128598282612d3c565b919050565b6000604051905090565b600067ffffffffffffffff82111561288357612882612ef6565b5b61288c82612f43565b9050602081019050919050565b600067ffffffffffffffff8211156128b4576128b3612ef6565b5b6128bd82612f43565b9050602081019050919050565b6000819050602082019050919050565b60008190508160005260206000209050919050565b600081519050919050565b600081519050919050565b600081519050919050565b6000602082019050919050565b600082825260208201905092915050565b600082825260208201905092915050565b600082825260208201905092915050565b600081905092915050565b600082825260208201905092915050565b600081905092915050565b600061298282612c90565b915061298d83612c90565b9250827fffffffffffffffffffffffffffffffffffffffffffffffffffffffffffffffff038211156129c2576129c1612e3a565b5b828201905092915050565b60006129d882612c90565b91506129e383612c90565b9250826129f3576129f2612e69565b5b828204905092915050565b6000808291508390505b6001851115612a4857808604811115612a2457612a23612e3a565b5b6001851615612a335780820291505b8081029050612a4185612f6e565b9450612a08565b94509492505050565b6000612a5c82612c90565b9150612a6783612c90565b9250612a947fffffffffffffffffffffffffffffffffffffffffffffffffffffffffffffffff8484612a9c565b905092915050565b600082612aac5760019050612b68565b81612aba5760009050612b68565b8160018114612ad05760028114612ada57612b09565b6001915050612b68565b60ff841115612aec57612aeb612e3a565b5b8360020a915084821115612b0357612b02612e3a565b5b50612b68565b5060208310610133831016604e8410600b8410161715612b3e5782820a905083811115612b3957612b38612e3a565b5b612b68565b612b4b84848460016129fe565b92509050818404811115612b6257612b61612e3a565b5b81810290505b9392505050565b6000612b7a82612c90565b9150612b8583612c90565b9250817fffffffffffffffffffffffffffffffffffffffffffffffffffffffffffffffff0483118215151615612bbe57612bbd612e3a565b5b828202905092915050565b6000612bd482612c90565b9150612bdf83612c90565b925082821015612bf257612bf1612e3a565b5b828203905092915050565b600060ff82169050919050565b6000612c1582612c70565b9050919050565b6000612c2782612c70565b9050919050565b60008115159050919050565b60007fffffffffffffffffffffffffffffffffffffffff00000000000000000000000082169050919050565b6000819050919050565b600073ffffffffffffffffffffffffffffffffffffffff82169050919050565b6000819050919050565b600067ffffffffffffffff82169050919050565b82818337600083830152505050565b60005b83811015612cdb578082015181840152602081019050612cc0565b83811115612cea576000848401525b50505050565b60006002820490506001821680612d0857607f821691505b60208210811415612d1c57612d1b612e98565b5b50919050565b6000612d35612d3083612f61565b612bfd565b9050919050565b612d4582612f43565b810181811067ffffffffffffffff82111715612d6457612d63612ef6565b5b80604052505050565b6000612d7882612c90565b91507fffffffffffffffffffffffffffffffffffffffffffffffffffffffffffffffff821415612dab57612daa612e3a565b5b600182019050919050565b6000612dc182612dc8565b9050919050565b6000612dd382612f54565b9050919050565b6000612de582612c90565b9150612df083612c90565b925082612e0057612dff612e69565b5b828206905092915050565b7f4e487b7100000000000000000000000000000000000000000000000000000000600052600160045260246000fd5b7f4e487b7100000000000000000000000000000000000000000000000000000000600052601160045260246000fd5b7f4e487b7100000000000000000000000000000000000000000000000000000000600052601260045260246000fd5b7f4e487b7100000000000000000000000000000000000000000000000000000000600052602260045260246000fd5b7f4e487b7100000000000000000000000000000000000000000000000000000000600052603260045260246000fd5b7f4e487b7100000000000000000000000000000000000000000000000000000000600052604160045260246000fd5b600080fd5b600080fd5b600080fd5b600080fd5b600080fd5b600080fd5b6000601f19601f8301169050919050565b60008160601b9050919050565b60008160001c9050919050565b60008160011c9050919050565b7f736c6963696e67206f7574206f662072616e6765000000000000000000000000600082015250565b7f44617461636170206e6f7420636c61696d61626c650000000000000000000000600082015250565b7f46656520746f6f206c6f77000000000000000000000000000000000000000000600082015250565b7f726573706f6e736520636f646563206e6f7420737570706f7274656400000000600082015250565b7f6163746f72206572726f7220636f6465202d0000000000000000000000000000600082015250565b7f496e76616c69642043424f520000000000000000000000000000000000000000600082015250565b7f4f6e6c79204f776e657200000000000000000000000000000000000000000000600082015250565b6130a381612c0a565b81146130ae57600080fd5b50565b6130ba81612c1c565b81146130c557600080fd5b50565b6130d181612c2e565b81146130dc57600080fd5b50565b6130e881612c3a565b81146130f357600080fd5b50565b6130ff81612c66565b811461310a57600080fd5b50565b61311681612c90565b811461312157600080fd5b50565b61312d81612c9a565b811461313857600080fd5b5056fea2646970667358221220ad8500b9099db371b232ce5d9b786d2eee0f7d6656f0269943a138b47f12b38c64736f6c63430008070033",
			"opcodes": "PUSH1 0x80 PUSH1 0x40 MSTORE PUSH8 0xDE0B6B3A7640000 PUSH1 0x9 SSTORE CALLVALUE DUP1 ISZERO PUSH3 0x1D JUMPI PUSH1 0x0 DUP1 REVERT JUMPDEST POP PUSH1 0x40 MLOAD PUSH3 0x3734 CODESIZE SUB DUP1 PUSH3 0x3734 DUP4 CODECOPY DUP2 DUP2 ADD PUSH1 0x40 MSTORE DUP2 ADD SWAP1 PUSH3 0x43 SWAP2 SWAP1 PUSH3 0x301 JUMP JUMPDEST DUP3 PUSH1 0x3 PUSH1 0x0 PUSH2 0x100 EXP DUP2 SLOAD DUP2 PUSH20 0xFFFFFFFFFFFFFFFFFFFFFFFFFFFFFFFFFFFFFFFF MUL NOT AND SWAP1 DUP4 PUSH20 0xFFFFFFFFFFFFFFFFFFFFFFFFFFFFFFFFFFFFFFFF AND MUL OR SWAP1 SSTORE POP DUP4 PUSH1 0x5 PUSH1 0x0 DUP3 ADD MLOAD DUP2 PUSH1 0x0 ADD SWAP1 DUP1 MLOAD SWAP1 PUSH1 0x20 ADD SWAP1 PUSH3 0xA5 SWAP3 SWAP2 SWAP1 PUSH3 0x12D JUMP JUMPDEST POP PUSH1 0x20 DUP3 ADD MLOAD DUP2 PUSH1 0x1 ADD PUSH1 0x0 PUSH2 0x100 EXP DUP2 SLOAD DUP2 PUSH1 0xFF MUL NOT AND SWAP1 DUP4 ISZERO ISZERO MUL OR SWAP1 SSTORE POP SWAP1 POP POP DUP2 PUSH1 0x1 PUSH1 0x0 PUSH2 0x100 EXP DUP2 SLOAD DUP2 PUSH20 0xFFFFFFFFFFFFFFFFFFFFFFFFFFFFFFFFFFFFFFFF MUL NOT AND SWAP1 DUP4 PUSH20 0xFFFFFFFFFFFFFFFFFFFFFFFFFFFFFFFFFFFFFFFF AND MUL OR SWAP1 SSTORE POP DUP1 PUSH1 0x0 SWAP1 DUP1 MLOAD SWAP1 PUSH1 0x20 ADD SWAP1 PUSH3 0x122 SWAP3 SWAP2 SWAP1 PUSH3 0x12D JUMP JUMPDEST POP POP POP POP POP PUSH3 0x5B3 JUMP JUMPDEST DUP3 DUP1 SLOAD PUSH3 0x13B SWAP1 PUSH3 0x486 JUMP JUMPDEST SWAP1 PUSH1 0x0 MSTORE PUSH1 0x20 PUSH1 0x0 KECCAK256 SWAP1 PUSH1 0x1F ADD PUSH1 0x20 SWAP1 DIV DUP2 ADD SWAP3 DUP3 PUSH3 0x15F JUMPI PUSH1 0x0 DUP6 SSTORE PUSH3 0x1AB JUMP JUMPDEST DUP3 PUSH1 0x1F LT PUSH3 0x17A JUMPI DUP1 MLOAD PUSH1 0xFF NOT AND DUP4 DUP1 ADD OR DUP6 SSTORE PUSH3 0x1AB JUMP JUMPDEST DUP3 DUP1 ADD PUSH1 0x1 ADD DUP6 SSTORE DUP3 ISZERO PUSH3 0x1AB JUMPI SWAP2 DUP3 ADD JUMPDEST DUP3 DUP2 GT ISZERO PUSH3 0x1AA JUMPI DUP3 MLOAD DUP3 SSTORE SWAP2 PUSH1 0x20 ADD SWAP2 SWAP1 PUSH1 0x1 ADD SWAP1 PUSH3 0x18D JUMP JUMPDEST JUMPDEST POP SWAP1 POP PUSH3 0x1BA SWAP2 SWAP1 PUSH3 0x1BE JUMP JUMPDEST POP SWAP1 JUMP JUMPDEST JUMPDEST DUP1 DUP3 GT ISZERO PUSH3 0x1D9 JUMPI PUSH1 0x0 DUP2 PUSH1 0x0 SWAP1 SSTORE POP PUSH1 0x1 ADD PUSH3 0x1BF JUMP JUMPDEST POP SWAP1 JUMP JUMPDEST PUSH1 0x0 PUSH3 0x1F4 PUSH3 0x1EE DUP5 PUSH3 0x3DA JUMP JUMPDEST PUSH3 0x3B1 JUMP JUMPDEST SWAP1 POP DUP3 DUP2 MSTORE PUSH1 0x20 DUP2 ADD DUP5 DUP5 DUP5 ADD GT ISZERO PUSH3 0x213 JUMPI PUSH3 0x212 PUSH3 0x55F JUMP JUMPDEST JUMPDEST PUSH3 0x220 DUP5 DUP3 DUP6 PUSH3 0x450 JUMP JUMPDEST POP SWAP4 SWAP3 POP POP POP JUMP JUMPDEST PUSH1 0x0 DUP2 MLOAD SWAP1 POP PUSH3 0x239 DUP2 PUSH3 0x57F JUMP JUMPDEST SWAP3 SWAP2 POP POP JUMP JUMPDEST PUSH1 0x0 DUP2 MLOAD SWAP1 POP PUSH3 0x250 DUP2 PUSH3 0x599 JUMP JUMPDEST SWAP3 SWAP2 POP POP JUMP JUMPDEST PUSH1 0x0 DUP3 PUSH1 0x1F DUP4 ADD SLT PUSH3 0x26E JUMPI PUSH3 0x26D PUSH3 0x550 JUMP JUMPDEST JUMPDEST DUP2 MLOAD PUSH3 0x280 DUP5 DUP3 PUSH1 0x20 DUP7 ADD PUSH3 0x1DD JUMP JUMPDEST SWAP2 POP POP SWAP3 SWAP2 POP POP JUMP JUMPDEST PUSH1 0x0 PUSH1 0x40 DUP3 DUP5 SUB SLT ISZERO PUSH3 0x2A2 JUMPI PUSH3 0x2A1 PUSH3 0x555 JUMP JUMPDEST JUMPDEST PUSH3 0x2AE PUSH1 0x40 PUSH3 0x3B1 JUMP JUMPDEST SWAP1 POP PUSH1 0x0 DUP3 ADD MLOAD PUSH8 0xFFFFFFFFFFFFFFFF DUP2 GT ISZERO PUSH3 0x2D1 JUMPI PUSH3 0x2D0 PUSH3 0x55A JUMP JUMPDEST JUMPDEST PUSH3 0x2DF DUP5 DUP3 DUP6 ADD PUSH3 0x256 JUMP JUMPDEST PUSH1 0x0 DUP4 ADD MSTORE POP PUSH1 0x20 PUSH3 0x2F5 DUP5 DUP3 DUP6 ADD PUSH3 0x23F JUMP JUMPDEST PUSH1 0x20 DUP4 ADD MSTORE POP SWAP3 SWAP2 POP POP JUMP JUMPDEST PUSH1 0x0 DUP1 PUSH1 0x0 DUP1 PUSH1 0x80 DUP6 DUP8 SUB SLT ISZERO PUSH3 0x31E JUMPI PUSH3 0x31D PUSH3 0x569 JUMP JUMPDEST JUMPDEST PUSH1 0x0 DUP6 ADD MLOAD PUSH8 0xFFFFFFFFFFFFFFFF DUP2 GT ISZERO PUSH3 0x33F JUMPI PUSH3 0x33E PUSH3 0x564 JUMP JUMPDEST JUMPDEST PUSH3 0x34D DUP8 DUP3 DUP9 ADD PUSH3 0x289 JUMP JUMPDEST SWAP5 POP POP PUSH1 0x20 PUSH3 0x360 DUP8 DUP3 DUP9 ADD PUSH3 0x228 JUMP JUMPDEST SWAP4 POP POP PUSH1 0x40 PUSH3 0x373 DUP8 DUP3 DUP9 ADD PUSH3 0x228 JUMP JUMPDEST SWAP3 POP POP PUSH1 0x60 DUP6 ADD MLOAD PUSH8 0xFFFFFFFFFFFFFFFF DUP2 GT ISZERO PUSH3 0x397 JUMPI PUSH3 0x396 PUSH3 0x564 JUMP JUMPDEST JUMPDEST PUSH3 0x3A5 DUP8 DUP3 DUP9 ADD PUSH3 0x256 JUMP JUMPDEST SWAP2 POP POP SWAP3 SWAP6 SWAP2 SWAP5 POP SWAP3 POP JUMP JUMPDEST PUSH1 0x0 PUSH3 0x3BD PUSH3 0x3D0 JUMP JUMPDEST SWAP1 POP PUSH3 0x3CB DUP3 DUP3 PUSH3 0x4BC JUMP JUMPDEST SWAP2 SWAP1 POP JUMP JUMPDEST PUSH1 0x0 PUSH1 0x40 MLOAD SWAP1 POP SWAP1 JUMP JUMPDEST PUSH1 0x0 PUSH8 0xFFFFFFFFFFFFFFFF DUP3 GT ISZERO PUSH3 0x3F8 JUMPI PUSH3 0x3F7 PUSH3 0x521 JUMP JUMPDEST JUMPDEST PUSH3 0x403 DUP3 PUSH3 0x56E JUMP JUMPDEST SWAP1 POP PUSH1 0x20 DUP2 ADD SWAP1 POP SWAP2 SWAP1 POP JUMP JUMPDEST PUSH1 0x0 PUSH3 0x41D DUP3 PUSH3 0x430 JUMP JUMPDEST SWAP1 POP SWAP2 SWAP1 POP JUMP JUMPDEST PUSH1 0x0 DUP2 ISZERO ISZERO SWAP1 POP SWAP2 SWAP1 POP JUMP JUMPDEST PUSH1 0x0 PUSH20 0xFFFFFFFFFFFFFFFFFFFFFFFFFFFFFFFFFFFFFFFF DUP3 AND SWAP1 POP SWAP2 SWAP1 POP JUMP JUMPDEST PUSH1 0x0 JUMPDEST DUP4 DUP2 LT ISZERO PUSH3 0x470 JUMPI DUP1 DUP3 ADD MLOAD DUP2 DUP5 ADD MSTORE PUSH1 0x20 DUP2 ADD SWAP1 POP PUSH3 0x453 JUMP JUMPDEST DUP4 DUP2 GT ISZERO PUSH3 0x480 JUMPI PUSH1 0x0 DUP5 DUP5 ADD MSTORE JUMPDEST POP POP POP POP JUMP JUMPDEST PUSH1 0x0 PUSH1 0x2 DUP3 DIV SWAP1 POP PUSH1 0x1 DUP3 AND DUP1 PUSH3 0x49F JUMPI PUSH1 0x7F DUP3 AND SWAP2 POP JUMPDEST PUSH1 0x20 DUP3 LT DUP2 EQ ISZERO PUSH3 0x4B6 JUMPI PUSH3 0x4B5 PUSH3 0x4F2 JUMP JUMPDEST JUMPDEST POP SWAP2 SWAP1 POP JUMP JUMPDEST PUSH3 0x4C7 DUP3 PUSH3 0x56E JUMP JUMPDEST DUP2 ADD DUP2 DUP2 LT PUSH8 0xFFFFFFFFFFFFFFFF DUP3 GT OR ISZERO PUSH3 0x4E9 JUMPI PUSH3 0x4E8 PUSH3 0x521 JUMP JUMPDEST JUMPDEST DUP1 PUSH1 0x40 MSTORE POP POP POP JUMP JUMPDEST PUSH32 0x4E487B7100000000000000000000000000000000000000000000000000000000 PUSH1 0x0 MSTORE PUSH1 0x22 PUSH1 0x4 MSTORE PUSH1 0x24 PUSH1 0x0 REVERT JUMPDEST PUSH32 0x4E487B7100000000000000000000000000000000000000000000000000000000 PUSH1 0x0 MSTORE PUSH1 0x41 PUSH1 0x4 MSTORE PUSH1 0x24 PUSH1 0x0 REVERT JUMPDEST PUSH1 0x0 DUP1 REVERT JUMPDEST PUSH1 0x0 DUP1 REVERT JUMPDEST PUSH1 0x0 DUP1 REVERT JUMPDEST PUSH1 0x0 DUP1 REVERT JUMPDEST PUSH1 0x0 DUP1 REVERT JUMPDEST PUSH1 0x0 DUP1 REVERT JUMPDEST PUSH1 0x0 PUSH1 0x1F NOT PUSH1 0x1F DUP4 ADD AND SWAP1 POP SWAP2 SWAP1 POP JUMP JUMPDEST PUSH3 0x58A DUP2 PUSH3 0x410 JUMP JUMPDEST DUP2 EQ PUSH3 0x596 JUMPI PUSH1 0x0 DUP1 REVERT JUMPDEST POP JUMP JUMPDEST PUSH3 0x5A4 DUP2 PUSH3 0x424 JUMP JUMPDEST DUP2 EQ PUSH3 0x5B0 JUMPI PUSH1 0x0 DUP1 REVERT JUMPDEST POP JUMP JUMPDEST PUSH2 0x3171 DUP1 PUSH3 0x5C3 PUSH1 0x0 CODECOPY PUSH1 0x0 RETURN INVALID PUSH1 0x80 PUSH1 0x40 MSTORE PUSH1 0x4 CALLDATASIZE LT PUSH2 0xC2 JUMPI PUSH1 0x0 CALLDATALOAD PUSH1 0xE0 SHR DUP1 PUSH4 0x617DF5D1 GT PUSH2 0x7F JUMPI DUP1 PUSH4 0xA908D700 GT PUSH2 0x59 JUMPI DUP1 PUSH4 0xA908D700 EQ PUSH2 0x283 JUMPI DUP1 PUSH4 0xB933F574 EQ PUSH2 0x2AE JUMPI DUP1 PUSH4 0xD1BFD337 EQ PUSH2 0x2DA JUMPI DUP1 PUSH4 0xF126148D EQ PUSH2 0x303 JUMPI PUSH2 0xC2 JUMP JUMPDEST DUP1 PUSH4 0x617DF5D1 EQ PUSH2 0x1DE JUMPI DUP1 PUSH4 0x6D4B76D5 EQ PUSH2 0x209 JUMPI DUP1 PUSH4 0x9D643740 EQ PUSH2 0x246 JUMPI PUSH2 0xC2 JUMP JUMPDEST DUP1 PUSH4 0x588565F EQ PUSH2 0xC7 JUMPI DUP1 PUSH4 0x6FDDE03 EQ PUSH2 0xF0 JUMPI DUP1 PUSH4 0x12065FE0 EQ PUSH2 0x11B JUMPI DUP1 PUSH4 0x1BFF1285 EQ PUSH2 0x146 JUMPI DUP1 PUSH4 0x31335555 EQ PUSH2 0x164 JUMPI DUP1 PUSH4 0x6124D80A EQ PUSH2 0x1A1 JUMPI JUMPDEST PUSH1 0x0 DUP1 REVERT JUMPDEST CALLVALUE DUP1 ISZERO PUSH2 0xD3 JUMPI PUSH1 0x0 DUP1 REVERT JUMPDEST POP PUSH2 0xEE PUSH1 0x4 DUP1 CALLDATASIZE SUB DUP2 ADD SWAP1 PUSH2 0xE9 SWAP2 SWAP1 PUSH2 0x200F JUMP JUMPDEST PUSH2 0x32E JUMP JUMPDEST STOP JUMPDEST CALLVALUE DUP1 ISZERO PUSH2 0xFC JUMPI PUSH1 0x0 DUP1 REVERT JUMPDEST POP PUSH2 0x105 PUSH2 0x3EC JUMP JUMPDEST PUSH1 0x40 MLOAD PUSH2 0x112 SWAP2 SWAP1 PUSH2 0x265C JUMP JUMPDEST PUSH1 0x40 MLOAD DUP1 SWAP2 SUB SWAP1 RETURN JUMPDEST CALLVALUE DUP1 ISZERO PUSH2 0x127 JUMPI PUSH1 0x0 DUP1 REVERT JUMPDEST POP PUSH2 0x130 PUSH2 0x47A JUMP JUMPDEST PUSH1 0x40 MLOAD PUSH2 0x13D SWAP2 SWAP1 PUSH2 0x2790 JUMP JUMPDEST PUSH1 0x40 MLOAD DUP1 SWAP2 SUB SWAP1 RETURN JUMPDEST PUSH2 0x14E PUSH2 0x48F JUMP JUMPDEST PUSH1 0x40 MLOAD PUSH2 0x15B SWAP2 SWAP1 PUSH2 0x2641 JUMP JUMPDEST PUSH1 0x40 MLOAD DUP1 SWAP2 SUB SWAP1 RETURN JUMPDEST CALLVALUE DUP1 ISZERO PUSH2 0x170 JUMPI PUSH1 0x0 DUP1 REVERT JUMPDEST POP PUSH2 0x18B PUSH1 0x4 DUP1 CALLDATASIZE SUB DUP2 ADD SWAP1 PUSH2 0x186 SWAP2 SWAP1 PUSH2 0x1FE2 JUMP JUMPDEST PUSH2 0x843 JUMP JUMPDEST PUSH1 0x40 MLOAD PUSH2 0x198 SWAP2 SWAP1 PUSH2 0x2641 JUMP JUMPDEST PUSH1 0x40 MLOAD DUP1 SWAP2 SUB SWAP1 RETURN JUMPDEST CALLVALUE DUP1 ISZERO PUSH2 0x1AD JUMPI PUSH1 0x0 DUP1 REVERT JUMPDEST POP PUSH2 0x1C8 PUSH1 0x4 DUP1 CALLDATASIZE SUB DUP2 ADD SWAP1 PUSH2 0x1C3 SWAP2 SWAP1 PUSH2 0x203C JUMP JUMPDEST PUSH2 0x863 JUMP JUMPDEST PUSH1 0x40 MLOAD PUSH2 0x1D5 SWAP2 SWAP1 PUSH2 0x265C JUMP JUMPDEST PUSH1 0x40 MLOAD DUP1 SWAP2 SUB SWAP1 RETURN JUMPDEST CALLVALUE DUP1 ISZERO PUSH2 0x1EA JUMPI PUSH1 0x0 DUP1 REVERT JUMPDEST POP PUSH2 0x1F3 PUSH2 0x86A JUMP JUMPDEST PUSH1 0x40 MLOAD PUSH2 0x200 SWAP2 SWAP1 PUSH2 0x2790 JUMP JUMPDEST PUSH1 0x40 MLOAD DUP1 SWAP2 SUB SWAP1 RETURN JUMPDEST CALLVALUE DUP1 ISZERO PUSH2 0x215 JUMPI PUSH1 0x0 DUP1 REVERT JUMPDEST POP PUSH2 0x230 PUSH1 0x4 DUP1 CALLDATASIZE SUB DUP2 ADD SWAP1 PUSH2 0x22B SWAP2 SWAP1 PUSH2 0x216A JUMP JUMPDEST PUSH2 0x931 JUMP JUMPDEST PUSH1 0x40 MLOAD PUSH2 0x23D SWAP2 SWAP1 PUSH2 0x2604 JUMP JUMPDEST PUSH1 0x40 MLOAD DUP1 SWAP2 SUB SWAP1 RETURN JUMPDEST CALLVALUE DUP1 ISZERO PUSH2 0x252 JUMPI PUSH1 0x0 DUP1 REVERT JUMPDEST POP PUSH2 0x26D PUSH1 0x4 DUP1 CALLDATASIZE SUB DUP2 ADD SWAP1 PUSH2 0x268 SWAP2 SWAP1 PUSH2 0x1FE2 JUMP JUMPDEST PUSH2 0x970 JUMP JUMPDEST PUSH1 0x40 MLOAD PUSH2 0x27A SWAP2 SWAP1 PUSH2 0x2641 JUMP JUMPDEST PUSH1 0x40 MLOAD DUP1 SWAP2 SUB SWAP1 RETURN JUMPDEST CALLVALUE DUP1 ISZERO PUSH2 0x28F JUMPI PUSH1 0x0 DUP1 REVERT JUMPDEST POP PUSH2 0x298 PUSH2 0x9C6 JUMP JUMPDEST PUSH1 0x40 MLOAD PUSH2 0x2A5 SWAP2 SWAP1 PUSH2 0x261F JUMP JUMPDEST PUSH1 0x40 MLOAD DUP1 SWAP2 SUB SWAP1 RETURN JUMPDEST CALLVALUE DUP1 ISZERO PUSH2 0x2BA JUMPI PUSH1 0x0 DUP1 REVERT JUMPDEST POP PUSH2 0x2C3 PUSH2 0xA54 JUMP JUMPDEST PUSH1 0x40 MLOAD PUSH2 0x2D1 SWAP3 SWAP2 SWAP1 PUSH2 0x267E JUMP JUMPDEST PUSH1 0x40 MLOAD DUP1 SWAP2 SUB SWAP1 RETURN JUMPDEST CALLVALUE DUP1 ISZERO PUSH2 0x2E6 JUMPI PUSH1 0x0 DUP1 REVERT JUMPDEST POP PUSH2 0x301 PUSH1 0x4 DUP1 CALLDATASIZE SUB DUP2 ADD SWAP1 PUSH2 0x2FC SWAP2 SWAP1 PUSH2 0x20D8 JUMP JUMPDEST PUSH2 0xAFB JUMP JUMPDEST STOP JUMPDEST CALLVALUE DUP1 ISZERO PUSH2 0x30F JUMPI PUSH1 0x0 DUP1 REVERT JUMPDEST POP PUSH2 0x318 PUSH2 0xAFE JUMP JUMPDEST PUSH1 0x40 MLOAD PUSH2 0x325 SWAP2 SWAP1 PUSH2 0x25E9 JUMP JUMPDEST PUSH1 0x40 MLOAD DUP1 SWAP2 SUB SWAP1 RETURN JUMPDEST PUSH1 0x2 DUP2 SWAP1 DUP1 PUSH1 0x1 DUP2 SLOAD ADD DUP1 DUP3 SSTORE DUP1 SWAP2 POP POP PUSH1 0x1 SWAP1 SUB SWAP1 PUSH1 0x0 MSTORE PUSH1 0x20 PUSH1 0x0 KECCAK256 ADD PUSH1 0x0 SWAP1 SWAP2 SWAP1 SWAP2 SWAP1 SWAP2 PUSH2 0x100 EXP DUP2 SLOAD DUP2 PUSH20 0xFFFFFFFFFFFFFFFFFFFFFFFFFFFFFFFFFFFFFFFF MUL NOT AND SWAP1 DUP4 PUSH20 0xFFFFFFFFFFFFFFFFFFFFFFFFFFFFFFFFFFFFFFFF AND MUL OR SWAP1 SSTORE POP PUSH1 0x1 PUSH1 0x4 PUSH1 0x0 DUP4 PUSH20 0xFFFFFFFFFFFFFFFFFFFFFFFFFFFFFFFFFFFFFFFF AND PUSH20 0xFFFFFFFFFFFFFFFFFFFFFFFFFFFFFFFFFFFFFFFF AND DUP2 MSTORE PUSH1 0x20 ADD SWAP1 DUP2 MSTORE PUSH1 0x20 ADD PUSH1 0x0 KECCAK256 PUSH1 0x0 PUSH2 0x100 EXP DUP2 SLOAD DUP2 PUSH1 0xFF MUL NOT AND SWAP1 DUP4 ISZERO ISZERO MUL OR SWAP1 SSTORE POP POP JUMP JUMPDEST PUSH1 0x0 DUP1 SLOAD PUSH2 0x3F9 SWAP1 PUSH2 0x2CF0 JUMP JUMPDEST DUP1 PUSH1 0x1F ADD PUSH1 0x20 DUP1 SWAP2 DIV MUL PUSH1 0x20 ADD PUSH1 0x40 MLOAD SWAP1 DUP2 ADD PUSH1 0x40 MSTORE DUP1 SWAP3 SWAP2 SWAP1 DUP2 DUP2 MSTORE PUSH1 0x20 ADD DUP3 DUP1 SLOAD PUSH2 0x425 SWAP1 PUSH2 0x2CF0 JUMP JUMPDEST DUP1 ISZERO PUSH2 0x472 JUMPI DUP1 PUSH1 0x1F LT PUSH2 0x447 JUMPI PUSH2 0x100 DUP1 DUP4 SLOAD DIV MUL DUP4 MSTORE SWAP2 PUSH1 0x20 ADD SWAP2 PUSH2 0x472 JUMP JUMPDEST DUP3 ADD SWAP2 SWAP1 PUSH1 0x0 MSTORE PUSH1 0x20 PUSH1 0x0 KECCAK256 SWAP1 JUMPDEST DUP2 SLOAD DUP2 MSTORE SWAP1 PUSH1 0x1 ADD SWAP1 PUSH1 0x20 ADD DUP1 DUP4 GT PUSH2 0x455 JUMPI DUP3 SWAP1 SUB PUSH1 0x1F AND DUP3 ADD SWAP2 JUMPDEST POP POP POP POP POP DUP2 JUMP JUMPDEST PUSH2 0x482 PUSH2 0x1CBC JUMP JUMPDEST PUSH2 0x48A PUSH2 0xB24 JUMP JUMPDEST SWAP1 POP SWAP1 JUMP JUMPDEST PUSH1 0x0 PUSH1 0x3 PUSH1 0x0 SWAP1 SLOAD SWAP1 PUSH2 0x100 EXP SWAP1 DIV PUSH20 0xFFFFFFFFFFFFFFFFFFFFFFFFFFFFFFFFFFFFFFFF AND PUSH20 0xFFFFFFFFFFFFFFFFFFFFFFFFFFFFFFFFFFFFFFFF AND CALLER PUSH20 0xFFFFFFFFFFFFFFFFFFFFFFFFFFFFFFFFFFFFFFFF AND EQ PUSH2 0x521 JUMPI PUSH1 0x40 MLOAD PUSH32 0x8C379A000000000000000000000000000000000000000000000000000000000 DUP2 MSTORE PUSH1 0x4 ADD PUSH2 0x518 SWAP1 PUSH2 0x2770 JUMP JUMPDEST PUSH1 0x40 MLOAD DUP1 SWAP2 SUB SWAP1 REVERT JUMPDEST PUSH1 0x9 SLOAD CALLVALUE LT ISZERO PUSH2 0x566 JUMPI PUSH1 0x40 MLOAD PUSH32 0x8C379A000000000000000000000000000000000000000000000000000000000 DUP2 MSTORE PUSH1 0x4 ADD PUSH2 0x55D SWAP1 PUSH2 0x2710 JUMP JUMPDEST PUSH1 0x40 MLOAD DUP1 SWAP2 SUB SWAP1 REVERT JUMPDEST PUSH1 0x0 PUSH1 0x1 PUSH1 0x0 SWAP1 SLOAD SWAP1 PUSH2 0x100 EXP SWAP1 DIV PUSH20 0xFFFFFFFFFFFFFFFFFFFFFFFFFFFFFFFFFFFFFFFF AND SWAP1 POP PUSH1 0x0 DUP2 PUSH20 0xFFFFFFFFFFFFFFFFFFFFFFFFFFFFFFFFFFFFFFFF AND PUSH4 0x1DF1096 PUSH1 0x40 MLOAD DUP2 PUSH4 0xFFFFFFFF AND PUSH1 0xE0 SHL DUP2 MSTORE PUSH1 0x4 ADD PUSH1 0x0 PUSH1 0x40 MLOAD DUP1 DUP4 SUB DUP2 PUSH1 0x0 DUP8 DUP1 EXTCODESIZE ISZERO DUP1 ISZERO PUSH2 0x5D7 JUMPI PUSH1 0x0 DUP1 REVERT JUMPDEST POP GAS CALL ISZERO DUP1 ISZERO PUSH2 0x5EB JUMPI RETURNDATASIZE PUSH1 0x0 DUP1 RETURNDATACOPY RETURNDATASIZE PUSH1 0x0 REVERT JUMPDEST POP POP POP POP PUSH1 0x40 MLOAD RETURNDATASIZE PUSH1 0x0 DUP3 RETURNDATACOPY RETURNDATASIZE PUSH1 0x1F NOT PUSH1 0x1F DUP3 ADD AND DUP3 ADD DUP1 PUSH1 0x40 MSTORE POP DUP2 ADD SWAP1 PUSH2 0x614 SWAP2 SWAP1 PUSH2 0x2121 JUMP JUMPDEST SWAP1 POP DUP1 PUSH1 0x0 ADD MLOAD PUSH2 0x65A JUMPI PUSH1 0x40 MLOAD PUSH32 0x8C379A000000000000000000000000000000000000000000000000000000000 DUP2 MSTORE PUSH1 0x4 ADD PUSH2 0x651 SWAP1 PUSH2 0x26F0 JUMP JUMPDEST PUSH1 0x40 MLOAD DUP1 SWAP2 SUB SWAP1 REVERT JUMPDEST DUP2 PUSH20 0xFFFFFFFFFFFFFFFFFFFFFFFFFFFFFFFFFFFFFFFF AND PUSH4 0xDD5F871F PUSH1 0x5 PUSH1 0x40 MLOAD DUP3 PUSH4 0xFFFFFFFF AND PUSH1 0xE0 SHL DUP2 MSTORE PUSH1 0x4 ADD PUSH2 0x694 SWAP2 SWAP1 PUSH2 0x27B2 JUMP JUMPDEST PUSH1 0x0 PUSH1 0x40 MLOAD DUP1 DUP4 SUB DUP2 PUSH1 0x0 DUP8 DUP1 EXTCODESIZE ISZERO DUP1 ISZERO PUSH2 0x6AE JUMPI PUSH1 0x0 DUP1 REVERT JUMPDEST POP GAS CALL ISZERO DUP1 ISZERO PUSH2 0x6C2 JUMPI RETURNDATASIZE PUSH1 0x0 DUP1 RETURNDATACOPY RETURNDATASIZE PUSH1 0x0 REVERT JUMPDEST POP POP POP POP PUSH1 0x0 PUSH1 0x64 PUSH1 0x5 CALLVALUE PUSH2 0x6D7 SWAP2 SWAP1 PUSH2 0x2B6F JUMP JUMPDEST PUSH2 0x6E1 SWAP2 SWAP1 PUSH2 0x29CD JUMP JUMPDEST SWAP1 POP PUSH1 0x1 PUSH1 0x0 SWAP1 SLOAD SWAP1 PUSH2 0x100 EXP SWAP1 DIV PUSH20 0xFFFFFFFFFFFFFFFFFFFFFFFFFFFFFFFFFFFFFFFF AND PUSH20 0xFFFFFFFFFFFFFFFFFFFFFFFFFFFFFFFFFFFFFFFF AND PUSH2 0x8FC DUP3 SWAP1 DUP2 ISZERO MUL SWAP1 PUSH1 0x40 MLOAD PUSH1 0x0 PUSH1 0x40 MLOAD DUP1 DUP4 SUB DUP2 DUP6 DUP9 DUP9 CALL SWAP4 POP POP POP POP ISZERO DUP1 ISZERO PUSH2 0x74B JUMPI RETURNDATASIZE PUSH1 0x0 DUP1 RETURNDATACOPY RETURNDATASIZE PUSH1 0x0 REVERT JUMPDEST POP PUSH1 0x0 DUP2 CALLVALUE PUSH2 0x75A SWAP2 SWAP1 PUSH2 0x2BC9 JUMP JUMPDEST SWAP1 POP PUSH1 0x0 PUSH1 0x2 DUP1 SLOAD SWAP1 POP DUP3 PUSH2 0x76F SWAP2 SWAP1 PUSH2 0x29CD JUMP JUMPDEST SWAP1 POP PUSH1 0x2 DUP1 SLOAD SWAP1 POP DUP2 PUSH2 0x782 SWAP2 SWAP1 PUSH2 0x2B6F JUMP JUMPDEST DUP3 LT ISZERO PUSH2 0x78E JUMPI PUSH1 0x0 DUP1 REVERT JUMPDEST PUSH1 0x0 JUMPDEST PUSH1 0x2 DUP1 SLOAD SWAP1 POP DUP2 LT ISZERO PUSH2 0x836 JUMPI PUSH1 0x2 DUP2 DUP2 SLOAD DUP2 LT PUSH2 0x7B2 JUMPI PUSH2 0x7B1 PUSH2 0x2EC7 JUMP JUMPDEST JUMPDEST SWAP1 PUSH1 0x0 MSTORE PUSH1 0x20 PUSH1 0x0 KECCAK256 ADD PUSH1 0x0 SWAP1 SLOAD SWAP1 PUSH2 0x100 EXP SWAP1 DIV PUSH20 0xFFFFFFFFFFFFFFFFFFFFFFFFFFFFFFFFFFFFFFFF AND PUSH20 0xFFFFFFFFFFFFFFFFFFFFFFFFFFFFFFFFFFFFFFFF AND PUSH2 0x8FC DUP4 SWAP1 DUP2 ISZERO MUL SWAP1 PUSH1 0x40 MLOAD PUSH1 0x0 PUSH1 0x40 MLOAD DUP1 DUP4 SUB DUP2 DUP6 DUP9 DUP9 CALL SWAP4 POP POP POP POP ISZERO DUP1 ISZERO PUSH2 0x822 JUMPI RETURNDATASIZE PUSH1 0x0 DUP1 RETURNDATACOPY RETURNDATASIZE PUSH1 0x0 REVERT JUMPDEST POP DUP1 DUP1 PUSH2 0x82E SWAP1 PUSH2 0x2D6D JUMP JUMPDEST SWAP2 POP POP PUSH2 0x791 JUMP JUMPDEST POP PUSH1 0x1 SWAP6 POP POP POP POP POP POP SWAP1 JUMP JUMPDEST PUSH1 0x4 PUSH1 0x20 MSTORE DUP1 PUSH1 0x0 MSTORE PUSH1 0x40 PUSH1 0x0 KECCAK256 PUSH1 0x0 SWAP2 POP SLOAD SWAP1 PUSH2 0x100 EXP SWAP1 DIV PUSH1 0xFF AND DUP2 JUMP JUMPDEST PUSH1 0x60 SWAP2 SWAP1 POP JUMP JUMPDEST PUSH2 0x872 PUSH2 0x1CBC JUMP JUMPDEST PUSH1 0x5 PUSH1 0x40 MLOAD DUP1 PUSH1 0x40 ADD PUSH1 0x40 MSTORE SWAP1 DUP2 PUSH1 0x0 DUP3 ADD DUP1 SLOAD PUSH2 0x88F SWAP1 PUSH2 0x2CF0 JUMP JUMPDEST DUP1 PUSH1 0x1F ADD PUSH1 0x20 DUP1 SWAP2 DIV MUL PUSH1 0x20 ADD PUSH1 0x40 MLOAD SWAP1 DUP2 ADD PUSH1 0x40 MSTORE DUP1 SWAP3 SWAP2 SWAP1 DUP2 DUP2 MSTORE PUSH1 0x20 ADD DUP3 DUP1 SLOAD PUSH2 0x8BB SWAP1 PUSH2 0x2CF0 JUMP JUMPDEST DUP1 ISZERO PUSH2 0x908 JUMPI DUP1 PUSH1 0x1F LT PUSH2 0x8DD JUMPI PUSH2 0x100 DUP1 DUP4 SLOAD DIV MUL DUP4 MSTORE SWAP2 PUSH1 0x20 ADD SWAP2 PUSH2 0x908 JUMP JUMPDEST DUP3 ADD SWAP2 SWAP1 PUSH1 0x0 MSTORE PUSH1 0x20 PUSH1 0x0 KECCAK256 SWAP1 JUMPDEST DUP2 SLOAD DUP2 MSTORE SWAP1 PUSH1 0x1 ADD SWAP1 PUSH1 0x20 ADD DUP1 DUP4 GT PUSH2 0x8EB JUMPI DUP3 SWAP1 SUB PUSH1 0x1F AND DUP3 ADD SWAP2 JUMPDEST POP POP POP POP POP DUP2 MSTORE PUSH1 0x20 ADD PUSH1 0x1 DUP3 ADD PUSH1 0x0 SWAP1 SLOAD SWAP1 PUSH2 0x100 EXP SWAP1 DIV PUSH1 0xFF AND ISZERO ISZERO ISZERO ISZERO DUP2 MSTORE POP POP SWAP1 POP SWAP1 JUMP JUMPDEST PUSH1 0x2 DUP2 DUP2 SLOAD DUP2 LT PUSH2 0x941 JUMPI PUSH1 0x0 DUP1 REVERT JUMPDEST SWAP1 PUSH1 0x0 MSTORE PUSH1 0x20 PUSH1 0x0 KECCAK256 ADD PUSH1 0x0 SWAP2 POP SLOAD SWAP1 PUSH2 0x100 EXP SWAP1 DIV PUSH20 0xFFFFFFFFFFFFFFFFFFFFFFFFFFFFFFFFFFFFFFFF AND DUP2 JUMP JUMPDEST PUSH1 0x0 PUSH1 0x4 PUSH1 0x0 DUP4 PUSH20 0xFFFFFFFFFFFFFFFFFFFFFFFFFFFFFFFFFFFFFFFF AND PUSH20 0xFFFFFFFFFFFFFFFFFFFFFFFFFFFFFFFFFFFFFFFF AND DUP2 MSTORE PUSH1 0x20 ADD SWAP1 DUP2 MSTORE PUSH1 0x20 ADD PUSH1 0x0 KECCAK256 PUSH1 0x0 SWAP1 SLOAD SWAP1 PUSH2 0x100 EXP SWAP1 DIV PUSH1 0xFF AND SWAP1 POP SWAP2 SWAP1 POP JUMP JUMPDEST PUSH1 0x60 PUSH1 0x2 DUP1 SLOAD DUP1 PUSH1 0x20 MUL PUSH1 0x20 ADD PUSH1 0x40 MLOAD SWAP1 DUP2 ADD PUSH1 0x40 MSTORE DUP1 SWAP3 SWAP2 SWAP1 DUP2 DUP2 MSTORE PUSH1 0x20 ADD DUP3 DUP1 SLOAD DUP1 ISZERO PUSH2 0xA4A JUMPI PUSH1 0x20 MUL DUP3 ADD SWAP2 SWAP1 PUSH1 0x0 MSTORE PUSH1 0x20 PUSH1 0x0 KECCAK256 SWAP1 JUMPDEST DUP2 PUSH1 0x0 SWAP1 SLOAD SWAP1 PUSH2 0x100 EXP SWAP1 DIV PUSH20 0xFFFFFFFFFFFFFFFFFFFFFFFFFFFFFFFFFFFFFFFF AND PUSH20 0xFFFFFFFFFFFFFFFFFFFFFFFFFFFFFFFFFFFFFFFF AND DUP2 MSTORE PUSH1 0x20 ADD SWAP1 PUSH1 0x1 ADD SWAP1 DUP1 DUP4 GT PUSH2 0xA00 JUMPI JUMPDEST POP POP POP POP POP SWAP1 POP SWAP1 JUMP JUMPDEST PUSH1 0x7 DUP1 PUSH1 0x0 ADD DUP1 SLOAD PUSH2 0xA65 SWAP1 PUSH2 0x2CF0 JUMP JUMPDEST DUP1 PUSH1 0x1F ADD PUSH1 0x20 DUP1 SWAP2 DIV MUL PUSH1 0x20 ADD PUSH1 0x40 MLOAD SWAP1 DUP2 ADD PUSH1 0x40 MSTORE DUP1 SWAP3 SWAP2 SWAP1 DUP2 DUP2 MSTORE PUSH1 0x20 ADD DUP3 DUP1 SLOAD PUSH2 0xA91 SWAP1 PUSH2 0x2CF0 JUMP JUMPDEST DUP1 ISZERO PUSH2 0xADE JUMPI DUP1 PUSH1 0x1F LT PUSH2 0xAB3 JUMPI PUSH2 0x100 DUP1 DUP4 SLOAD DIV MUL DUP4 MSTORE SWAP2 PUSH1 0x20 ADD SWAP2 PUSH2 0xADE JUMP JUMPDEST DUP3 ADD SWAP2 SWAP1 PUSH1 0x0 MSTORE PUSH1 0x20 PUSH1 0x0 KECCAK256 SWAP1 JUMPDEST DUP2 SLOAD DUP2 MSTORE SWAP1 PUSH1 0x1 ADD SWAP1 PUSH1 0x20 ADD DUP1 DUP4 GT PUSH2 0xAC1 JUMPI DUP3 SWAP1 SUB PUSH1 0x1F AND DUP3 ADD SWAP2 JUMPDEST POP POP POP POP POP SWAP1 DUP1 PUSH1 0x1 ADD PUSH1 0x0 SWAP1 SLOAD SWAP1 PUSH2 0x100 EXP SWAP1 DIV PUSH1 0xFF AND SWAP1 POP DUP3 JUMP JUMPDEST POP JUMP JUMPDEST PUSH1 0x3 PUSH1 0x0 SWAP1 SLOAD SWAP1 PUSH2 0x100 EXP SWAP1 DIV PUSH20 0xFFFFFFFFFFFFFFFFFFFFFFFFFFFFFFFFFFFFFFFF AND DUP2 JUMP JUMPDEST PUSH2 0xB2C PUSH2 0x1CBC JUMP JUMPDEST PUSH1 0x0 ADDRESS PUSH1 0x40 MLOAD PUSH1 0x20 ADD PUSH2 0xB3F SWAP2 SWAP1 PUSH2 0x2595 JUMP JUMPDEST PUSH1 0x40 MLOAD PUSH1 0x20 DUP2 DUP4 SUB SUB DUP2 MSTORE SWAP1 PUSH1 0x40 MSTORE SWAP1 POP PUSH2 0xB59 DUP2 PUSH2 0xB5F JUMP JUMPDEST SWAP2 POP POP SWAP1 JUMP JUMPDEST PUSH2 0xB67 PUSH2 0x1CBC JUMP JUMPDEST PUSH1 0x0 PUSH2 0xB72 DUP4 PUSH2 0xBDE JUMP JUMPDEST SWAP1 POP PUSH1 0x0 PUSH2 0xBBC PUSH4 0xC26DDBD5 PUSH1 0x40 MLOAD DUP1 PUSH1 0x40 ADD PUSH1 0x40 MSTORE DUP1 PUSH1 0x2 DUP2 MSTORE PUSH1 0x20 ADD PUSH31 0x7000000000000000000000000000000000000000000000000000000000000 DUP2 MSTORE POP DUP5 PUSH1 0x71 CALLVALUE PUSH2 0xC12 JUMP JUMPDEST SWAP1 POP PUSH1 0x0 PUSH2 0xBC9 DUP3 PUSH2 0xD4D JUMP JUMPDEST SWAP1 POP PUSH2 0xBD4 DUP2 PUSH2 0xE3E JUMP JUMPDEST SWAP4 POP POP POP POP SWAP2 SWAP1 POP JUMP JUMPDEST PUSH1 0x60 PUSH1 0x0 PUSH2 0xBEC PUSH1 0x40 PUSH2 0xEFA JUMP JUMPDEST SWAP1 POP PUSH2 0xC01 DUP4 DUP3 PUSH2 0xF21 SWAP1 SWAP2 SWAP1 PUSH4 0xFFFFFFFF AND JUMP JUMPDEST PUSH2 0xC0A DUP2 PUSH2 0xF4A JUMP JUMPDEST SWAP2 POP POP SWAP2 SWAP1 POP JUMP JUMPDEST PUSH1 0x60 PUSH1 0x0 DUP1 PUSH20 0xFE00000000000000000000000000000000000003 PUSH20 0xFFFFFFFFFFFFFFFFFFFFFFFFFFFFFFFFFFFFFFFF AND DUP9 DUP6 PUSH1 0x0 DUP9 DUP11 DUP13 PUSH1 0x40 MLOAD PUSH1 0x20 ADD PUSH2 0xC5E SWAP7 SWAP6 SWAP5 SWAP4 SWAP3 SWAP2 SWAP1 PUSH2 0x27D4 JUMP JUMPDEST PUSH1 0x40 MLOAD PUSH1 0x20 DUP2 DUP4 SUB SUB DUP2 MSTORE SWAP1 PUSH1 0x40 MSTORE PUSH1 0x40 MLOAD PUSH2 0xC7A SWAP2 SWAP1 PUSH2 0x25B0 JUMP JUMPDEST PUSH1 0x0 PUSH1 0x40 MLOAD DUP1 DUP4 SUB DUP2 DUP6 GAS DELEGATECALL SWAP2 POP POP RETURNDATASIZE DUP1 PUSH1 0x0 DUP2 EQ PUSH2 0xCB5 JUMPI PUSH1 0x40 MLOAD SWAP2 POP PUSH1 0x1F NOT PUSH1 0x3F RETURNDATASIZE ADD AND DUP3 ADD PUSH1 0x40 MSTORE RETURNDATASIZE DUP3 MSTORE RETURNDATASIZE PUSH1 0x0 PUSH1 0x20 DUP5 ADD RETURNDATACOPY PUSH2 0xCBA JUMP JUMPDEST PUSH1 0x60 SWAP2 POP JUMPDEST POP SWAP2 POP SWAP2 POP PUSH1 0x1 ISZERO ISZERO DUP3 ISZERO ISZERO EQ PUSH1 0x40 MLOAD DUP1 PUSH1 0x40 ADD PUSH1 0x40 MSTORE DUP1 PUSH1 0x11 DUP2 MSTORE PUSH1 0x20 ADD PUSH32 0x6163746F722063616C6C206661696C6564000000000000000000000000000000 DUP2 MSTORE POP SWAP1 PUSH2 0xD3E JUMPI PUSH1 0x40 MLOAD PUSH32 0x8C379A000000000000000000000000000000000000000000000000000000000 DUP2 MSTORE PUSH1 0x4 ADD PUSH2 0xD35 SWAP2 SWAP1 PUSH2 0x26AE JUMP JUMPDEST PUSH1 0x40 MLOAD DUP1 SWAP2 SUB SWAP1 REVERT JUMPDEST POP DUP1 SWAP3 POP POP POP SWAP6 SWAP5 POP POP POP POP POP JUMP JUMPDEST PUSH1 0x60 PUSH1 0x0 DUP1 PUSH1 0x0 DUP5 DUP1 PUSH1 0x20 ADD SWAP1 MLOAD DUP2 ADD SWAP1 PUSH2 0xD68 SWAP2 SWAP1 PUSH2 0x2069 JUMP JUMPDEST SWAP3 POP SWAP3 POP SWAP3 POP PUSH1 0x0 PUSH8 0xFFFFFFFFFFFFFFFF AND DUP3 PUSH8 0xFFFFFFFFFFFFFFFF AND EQ DUP1 PUSH2 0xDA5 JUMPI POP PUSH1 0x71 PUSH8 0xFFFFFFFFFFFFFFFF AND DUP3 PUSH8 0xFFFFFFFFFFFFFFFF AND EQ JUMPDEST PUSH2 0xDE4 JUMPI PUSH1 0x40 MLOAD PUSH32 0x8C379A000000000000000000000000000000000000000000000000000000000 DUP2 MSTORE PUSH1 0x4 ADD PUSH2 0xDDB SWAP1 PUSH2 0x2730 JUMP JUMPDEST PUSH1 0x40 MLOAD DUP1 SWAP2 SUB SWAP1 REVERT JUMPDEST PUSH1 0x0 DUP4 EQ PUSH2 0xDF1 DUP5 PUSH2 0xFA3 JUMP JUMPDEST SWAP1 PUSH2 0xE32 JUMPI PUSH1 0x40 MLOAD PUSH32 0x8C379A000000000000000000000000000000000000000000000000000000000 DUP2 MSTORE PUSH1 0x4 ADD PUSH2 0xE29 SWAP2 SWAP1 PUSH2 0x26AE JUMP JUMPDEST PUSH1 0x40 MLOAD DUP1 SWAP2 SUB SWAP1 REVERT JUMPDEST POP DUP1 SWAP4 POP POP POP POP SWAP2 SWAP1 POP JUMP JUMPDEST PUSH2 0xE46 PUSH2 0x1CBC JUMP JUMPDEST PUSH1 0x60 PUSH1 0x0 DUP1 DUP5 MLOAD GT ISZERO PUSH2 0xE8B JUMPI PUSH2 0xE66 DUP2 DUP6 PUSH2 0xFD4 SWAP1 SWAP2 SWAP1 PUSH4 0xFFFFFFFF AND JUMP JUMPDEST DUP1 SWAP3 POP DUP2 SWAP4 POP POP POP PUSH1 0x0 DUP3 MLOAD GT ISZERO PUSH2 0xE8A JUMPI PUSH2 0xE81 DUP3 PUSH2 0x117F JUMP JUMPDEST SWAP3 POP POP POP PUSH2 0xEF5 JUMP JUMPDEST JUMPDEST PUSH1 0x40 MLOAD DUP1 PUSH1 0x40 ADD PUSH1 0x40 MSTORE DUP1 PUSH1 0x0 PUSH8 0xFFFFFFFFFFFFFFFF DUP2 GT ISZERO PUSH2 0xEB1 JUMPI PUSH2 0xEB0 PUSH2 0x2EF6 JUMP JUMPDEST JUMPDEST PUSH1 0x40 MLOAD SWAP1 DUP1 DUP3 MSTORE DUP1 PUSH1 0x1F ADD PUSH1 0x1F NOT AND PUSH1 0x20 ADD DUP3 ADD PUSH1 0x40 MSTORE DUP1 ISZERO PUSH2 0xEE3 JUMPI DUP2 PUSH1 0x20 ADD PUSH1 0x1 DUP3 MUL DUP1 CALLDATASIZE DUP4 CALLDATACOPY DUP1 DUP3 ADD SWAP2 POP POP SWAP1 POP JUMPDEST POP DUP2 MSTORE PUSH1 0x20 ADD PUSH1 0x0 ISZERO ISZERO DUP2 MSTORE POP SWAP3 POP POP POP JUMPDEST SWAP2 SWAP1 POP JUMP JUMPDEST PUSH2 0xF02 PUSH2 0x1CD8 JUMP JUMPDEST PUSH2 0xF10 DUP2 PUSH1 0x0 ADD MLOAD DUP4 PUSH2 0x1328 JUMP JUMPDEST POP PUSH1 0x0 DUP2 PUSH1 0x20 ADD DUP2 DUP2 MSTORE POP POP SWAP2 SWAP1 POP JUMP JUMPDEST PUSH2 0xF2E DUP3 PUSH1 0x2 DUP4 MLOAD PUSH2 0x13A1 JUMP JUMPDEST PUSH2 0xF45 DUP2 DUP4 PUSH1 0x0 ADD MLOAD PUSH2 0x154A SWAP1 SWAP2 SWAP1 PUSH4 0xFFFFFFFF AND JUMP JUMPDEST POP POP POP JUMP JUMPDEST PUSH1 0x60 PUSH1 0x0 DUP3 PUSH1 0x20 ADD MLOAD EQ PUSH2 0xF93 JUMPI PUSH1 0x40 MLOAD PUSH32 0x8C379A000000000000000000000000000000000000000000000000000000000 DUP2 MSTORE PUSH1 0x4 ADD PUSH2 0xF8A SWAP1 PUSH2 0x2750 JUMP JUMPDEST PUSH1 0x40 MLOAD DUP1 SWAP2 SUB SWAP1 REVERT JUMPDEST DUP2 PUSH1 0x0 ADD MLOAD PUSH1 0x0 ADD MLOAD SWAP1 POP SWAP2 SWAP1 POP JUMP JUMPDEST PUSH1 0x60 PUSH2 0xFAE DUP3 PUSH2 0x1566 JUMP JUMPDEST PUSH1 0x40 MLOAD PUSH1 0x20 ADD PUSH2 0xFBE SWAP2 SWAP1 PUSH2 0x25C7 JUMP JUMPDEST PUSH1 0x40 MLOAD PUSH1 0x20 DUP2 DUP4 SUB SUB DUP2 MSTORE SWAP1 PUSH1 0x40 MSTORE SWAP1 POP SWAP2 SWAP1 POP JUMP JUMPDEST PUSH1 0x60 PUSH1 0x0 DUP1 PUSH1 0x0 PUSH2 0xFE5 DUP7 DUP7 PUSH2 0x163E JUMP JUMPDEST DUP2 PUSH8 0xFFFFFFFFFFFFFFFF AND SWAP2 POP DUP1 SWAP8 POP DUP2 SWAP4 POP DUP3 SWAP5 POP POP POP POP PUSH1 0x6 PUSH1 0xFF AND DUP3 PUSH1 0xFF AND EQ DUP1 PUSH2 0x1019 JUMPI POP PUSH1 0x2 PUSH1 0xFF AND DUP3 PUSH1 0xFF AND EQ JUMPDEST PUSH2 0x1026 JUMPI PUSH2 0x1025 PUSH2 0x2E0B JUMP JUMPDEST JUMPDEST PUSH1 0x6 PUSH1 0xFF AND DUP3 PUSH1 0xFF AND EQ ISZERO PUSH2 0x1070 JUMPI PUSH2 0x103F DUP7 DUP7 PUSH2 0x163E JUMP JUMPDEST DUP2 PUSH8 0xFFFFFFFFFFFFFFFF AND SWAP2 POP DUP1 SWAP8 POP DUP2 SWAP4 POP DUP3 SWAP5 POP POP POP POP PUSH1 0x2 PUSH1 0xFF AND DUP3 PUSH1 0xFF AND EQ PUSH2 0x106F JUMPI PUSH2 0x106E PUSH2 0x2E0B JUMP JUMPDEST JUMPDEST JUMPDEST PUSH1 0x0 DUP2 DUP7 PUSH2 0x107E SWAP2 SWAP1 PUSH2 0x2977 JUMP JUMPDEST SWAP1 POP PUSH1 0x0 DUP3 PUSH8 0xFFFFFFFFFFFFFFFF DUP2 GT ISZERO PUSH2 0x109C JUMPI PUSH2 0x109B PUSH2 0x2EF6 JUMP JUMPDEST JUMPDEST PUSH1 0x40 MLOAD SWAP1 DUP1 DUP3 MSTORE DUP1 PUSH1 0x1F ADD PUSH1 0x1F NOT AND PUSH1 0x20 ADD DUP3 ADD PUSH1 0x40 MSTORE DUP1 ISZERO PUSH2 0x10CE JUMPI DUP2 PUSH1 0x20 ADD PUSH1 0x1 DUP3 MUL DUP1 CALLDATASIZE DUP4 CALLDATACOPY DUP1 DUP3 ADD SWAP2 POP POP SWAP1 POP JUMPDEST POP SWAP1 POP PUSH1 0x0 DUP1 DUP9 SWAP1 POP JUMPDEST DUP4 DUP2 LT ISZERO PUSH2 0x1161 JUMPI DUP10 DUP2 DUP2 MLOAD DUP2 LT PUSH2 0x10F3 JUMPI PUSH2 0x10F2 PUSH2 0x2EC7 JUMP JUMPDEST JUMPDEST PUSH1 0x20 ADD ADD MLOAD PUSH1 0xF8 SHR PUSH1 0xF8 SHL DUP4 DUP4 DUP2 MLOAD DUP2 LT PUSH2 0x1111 JUMPI PUSH2 0x1110 PUSH2 0x2EC7 JUMP JUMPDEST JUMPDEST PUSH1 0x20 ADD ADD SWAP1 PUSH31 0xFFFFFFFFFFFFFFFFFFFFFFFFFFFFFFFFFFFFFFFFFFFFFFFFFFFFFFFFFFFFFF NOT AND SWAP1 DUP2 PUSH1 0x0 BYTE SWAP1 MSTORE8 POP DUP2 DUP1 PUSH2 0x114B SWAP1 PUSH2 0x2D6D JUMP JUMPDEST SWAP3 POP POP DUP1 DUP1 PUSH2 0x1159 SWAP1 PUSH2 0x2D6D JUMP JUMPDEST SWAP2 POP POP PUSH2 0x10D8 JUMP JUMPDEST POP DUP2 DUP5 DUP10 PUSH2 0x116F SWAP2 SWAP1 PUSH2 0x2977 JUMP JUMPDEST SWAP7 POP SWAP7 POP POP POP POP POP POP SWAP3 POP SWAP3 SWAP1 POP JUMP JUMPDEST PUSH2 0x1187 PUSH2 0x1CBC JUMP JUMPDEST PUSH1 0x0 DUP3 MLOAD EQ ISZERO PUSH2 0x11C6 JUMPI PUSH1 0x40 MLOAD DUP1 PUSH1 0x40 ADD PUSH1 0x40 MSTORE DUP1 PUSH1 0x40 MLOAD DUP1 PUSH1 0x40 ADD PUSH1 0x40 MSTORE DUP1 PUSH1 0x1 DUP2 MSTORE PUSH1 0x20 ADD PUSH1 0x0 DUP2 MSTORE POP DUP2 MSTORE PUSH1 0x20 ADD PUSH1 0x0 ISZERO ISZERO DUP2 MSTORE POP SWAP1 POP PUSH2 0x1323 JUMP JUMPDEST PUSH1 0x0 PUSH1 0x1 DUP4 MLOAD PUSH2 0x11D6 SWAP2 SWAP1 PUSH2 0x2BC9 JUMP JUMPDEST PUSH8 0xFFFFFFFFFFFFFFFF DUP2 GT ISZERO PUSH2 0x11EF JUMPI PUSH2 0x11EE PUSH2 0x2EF6 JUMP JUMPDEST JUMPDEST PUSH1 0x40 MLOAD SWAP1 DUP1 DUP3 MSTORE DUP1 PUSH1 0x1F ADD PUSH1 0x1F NOT AND PUSH1 0x20 ADD DUP3 ADD PUSH1 0x40 MSTORE DUP1 ISZERO PUSH2 0x1221 JUMPI DUP2 PUSH1 0x20 ADD PUSH1 0x1 DUP3 MUL DUP1 CALLDATASIZE DUP4 CALLDATACOPY DUP1 DUP3 ADD SWAP2 POP POP SWAP1 POP JUMPDEST POP SWAP1 POP PUSH1 0x0 PUSH1 0x1 PUSH1 0xF8 SHL DUP5 PUSH1 0x0 DUP2 MLOAD DUP2 LT PUSH2 0x123F JUMPI PUSH2 0x123E PUSH2 0x2EC7 JUMP JUMPDEST JUMPDEST PUSH1 0x20 ADD ADD MLOAD PUSH1 0xF8 SHR PUSH1 0xF8 SHL PUSH31 0xFFFFFFFFFFFFFFFFFFFFFFFFFFFFFFFFFFFFFFFFFFFFFFFFFFFFFFFFFFFFFF NOT AND EQ ISZERO PUSH2 0x1277 JUMPI PUSH1 0x1 SWAP1 POP JUMPDEST PUSH1 0x0 PUSH1 0x1 SWAP1 POP JUMPDEST DUP5 MLOAD DUP2 LT ISZERO PUSH2 0x1306 JUMPI DUP5 DUP2 DUP2 MLOAD DUP2 LT PUSH2 0x129A JUMPI PUSH2 0x1299 PUSH2 0x2EC7 JUMP JUMPDEST JUMPDEST PUSH1 0x20 ADD ADD MLOAD PUSH1 0xF8 SHR PUSH1 0xF8 SHL DUP4 PUSH1 0x1 DUP4 PUSH2 0x12B3 SWAP2 SWAP1 PUSH2 0x2BC9 JUMP JUMPDEST DUP2 MLOAD DUP2 LT PUSH2 0x12C4 JUMPI PUSH2 0x12C3 PUSH2 0x2EC7 JUMP JUMPDEST JUMPDEST PUSH1 0x20 ADD ADD SWAP1 PUSH31 0xFFFFFFFFFFFFFFFFFFFFFFFFFFFFFFFFFFFFFFFFFFFFFFFFFFFFFFFFFFFFFF NOT AND SWAP1 DUP2 PUSH1 0x0 BYTE SWAP1 MSTORE8 POP DUP1 DUP1 PUSH2 0x12FE SWAP1 PUSH2 0x2D6D JUMP JUMPDEST SWAP2 POP POP PUSH2 0x127E JUMP JUMPDEST POP PUSH1 0x40 MLOAD DUP1 PUSH1 0x40 ADD PUSH1 0x40 MSTORE DUP1 DUP4 DUP2 MSTORE PUSH1 0x20 ADD DUP3 ISZERO ISZERO DUP2 MSTORE POP SWAP3 POP POP POP JUMPDEST SWAP2 SWAP1 POP JUMP JUMPDEST PUSH2 0x1330 PUSH2 0x1CF8 JUMP JUMPDEST PUSH1 0x0 PUSH1 0x20 DUP4 PUSH2 0x133F SWAP2 SWAP1 PUSH2 0x2DDA JUMP JUMPDEST EQ PUSH2 0x136B JUMPI PUSH1 0x20 DUP3 PUSH2 0x1351 SWAP2 SWAP1 PUSH2 0x2DDA JUMP JUMPDEST PUSH1 0x20 PUSH2 0x135D SWAP2 SWAP1 PUSH2 0x2BC9 JUMP JUMPDEST DUP3 PUSH2 0x1368 SWAP2 SWAP1 PUSH2 0x2977 JUMP JUMPDEST SWAP2 POP JUMPDEST DUP2 DUP4 PUSH1 0x20 ADD DUP2 DUP2 MSTORE POP POP PUSH1 0x40 MLOAD DUP1 DUP5 MSTORE PUSH1 0x0 DUP2 MSTORE DUP3 DUP2 ADD PUSH1 0x20 ADD DUP2 DUP2 LT ISZERO PUSH2 0x1392 JUMPI PUSH1 0x0 DUP1 REVERT JUMPDEST DUP1 PUSH1 0x40 MSTORE POP POP DUP3 SWAP1 POP SWAP3 SWAP2 POP POP JUMP JUMPDEST PUSH1 0x17 DUP2 PUSH8 0xFFFFFFFFFFFFFFFF AND GT PUSH2 0x13DC JUMPI PUSH2 0x13D6 DUP2 PUSH1 0x5 DUP5 PUSH1 0xFF AND SWAP1 SHL PUSH1 0xFF AND OR DUP5 PUSH1 0x0 ADD MLOAD PUSH2 0x17CF SWAP1 SWAP2 SWAP1 PUSH4 0xFFFFFFFF AND JUMP JUMPDEST POP PUSH2 0x1545 JUMP JUMPDEST PUSH1 0xFF DUP2 PUSH8 0xFFFFFFFFFFFFFFFF AND GT PUSH2 0x143A JUMPI PUSH2 0x140F PUSH1 0x18 PUSH1 0x5 DUP5 PUSH1 0xFF AND SWAP1 SHL OR DUP5 PUSH1 0x0 ADD MLOAD PUSH2 0x17CF SWAP1 SWAP2 SWAP1 PUSH4 0xFFFFFFFF AND JUMP JUMPDEST POP PUSH2 0x1434 DUP2 PUSH8 0xFFFFFFFFFFFFFFFF AND PUSH1 0x1 DUP6 PUSH1 0x0 ADD MLOAD PUSH2 0x1839 SWAP1 SWAP3 SWAP2 SWAP1 PUSH4 0xFFFFFFFF AND JUMP JUMPDEST POP PUSH2 0x1544 JUMP JUMPDEST PUSH2 0xFFFF DUP2 PUSH8 0xFFFFFFFFFFFFFFFF AND GT PUSH2 0x1499 JUMPI PUSH2 0x146E PUSH1 0x19 PUSH1 0x5 DUP5 PUSH1 0xFF AND SWAP1 SHL OR DUP5 PUSH1 0x0 ADD MLOAD PUSH2 0x17CF SWAP1 SWAP2 SWAP1 PUSH4 0xFFFFFFFF AND JUMP JUMPDEST POP PUSH2 0x1493 DUP2 PUSH8 0xFFFFFFFFFFFFFFFF AND PUSH1 0x2 DUP6 PUSH1 0x0 ADD MLOAD PUSH2 0x1839 SWAP1 SWAP3 SWAP2 SWAP1 PUSH4 0xFFFFFFFF AND JUMP JUMPDEST POP PUSH2 0x1543 JUMP JUMPDEST PUSH4 0xFFFFFFFF DUP2 PUSH8 0xFFFFFFFFFFFFFFFF AND GT PUSH2 0x14FA JUMPI PUSH2 0x14CF PUSH1 0x1A PUSH1 0x5 DUP5 PUSH1 0xFF AND SWAP1 SHL OR DUP5 PUSH1 0x0 ADD MLOAD PUSH2 0x17CF SWAP1 SWAP2 SWAP1 PUSH4 0xFFFFFFFF AND JUMP JUMPDEST POP PUSH2 0x14F4 DUP2 PUSH8 0xFFFFFFFFFFFFFFFF AND PUSH1 0x4 DUP6 PUSH1 0x0 ADD MLOAD PUSH2 0x1839 SWAP1 SWAP3 SWAP2 SWAP1 PUSH4 0xFFFFFFFF AND JUMP JUMPDEST POP PUSH2 0x1542 JUMP JUMPDEST PUSH2 0x151B PUSH1 0x1B PUSH1 0x5 DUP5 PUSH1 0xFF AND SWAP1 SHL OR DUP5 PUSH1 0x0 ADD MLOAD PUSH2 0x17CF SWAP1 SWAP2 SWAP1 PUSH4 0xFFFFFFFF AND JUMP JUMPDEST POP PUSH2 0x1540 DUP2 PUSH8 0xFFFFFFFFFFFFFFFF AND PUSH1 0x8 DUP6 PUSH1 0x0 ADD MLOAD PUSH2 0x1839 SWAP1 SWAP3 SWAP2 SWAP1 PUSH4 0xFFFFFFFF AND JUMP JUMPDEST POP JUMPDEST JUMPDEST JUMPDEST JUMPDEST POP POP POP JUMP JUMPDEST PUSH2 0x1552 PUSH2 0x1CF8 JUMP JUMPDEST PUSH2 0x155E DUP4 DUP4 DUP5 MLOAD PUSH2 0x18C6 JUMP JUMPDEST SWAP1 POP SWAP3 SWAP2 POP POP JUMP JUMPDEST PUSH1 0x60 PUSH1 0x0 PUSH1 0x1 PUSH2 0x1575 DUP5 PUSH2 0x19A9 JUMP JUMPDEST ADD SWAP1 POP PUSH1 0x0 DUP2 PUSH8 0xFFFFFFFFFFFFFFFF DUP2 GT ISZERO PUSH2 0x1594 JUMPI PUSH2 0x1593 PUSH2 0x2EF6 JUMP JUMPDEST JUMPDEST PUSH1 0x40 MLOAD SWAP1 DUP1 DUP3 MSTORE DUP1 PUSH1 0x1F ADD PUSH1 0x1F NOT AND PUSH1 0x20 ADD DUP3 ADD PUSH1 0x40 MSTORE DUP1 ISZERO PUSH2 0x15C6 JUMPI DUP2 PUSH1 0x20 ADD PUSH1 0x1 DUP3 MUL DUP1 CALLDATASIZE DUP4 CALLDATACOPY DUP1 DUP3 ADD SWAP2 POP POP SWAP1 POP JUMPDEST POP SWAP1 POP PUSH1 0x0 DUP3 PUSH1 0x20 ADD DUP3 ADD SWAP1 POP JUMPDEST PUSH1 0x1 ISZERO PUSH2 0x1633 JUMPI DUP1 DUP1 PUSH1 0x1 SWAP1 SUB SWAP2 POP POP PUSH32 0x3031323334353637383961626364656600000000000000000000000000000000 PUSH1 0xA DUP7 MOD BYTE DUP2 MSTORE8 PUSH1 0xA DUP6 DUP2 PUSH2 0x161D JUMPI PUSH2 0x161C PUSH2 0x2E69 JUMP JUMPDEST JUMPDEST DIV SWAP5 POP PUSH1 0x0 DUP6 EQ ISZERO PUSH2 0x162E JUMPI PUSH2 0x1633 JUMP JUMPDEST PUSH2 0x15D4 JUMP JUMPDEST DUP2 SWAP4 POP POP POP POP SWAP2 SWAP1 POP JUMP JUMPDEST PUSH1 0x0 DUP1 PUSH1 0x0 DUP1 PUSH2 0x164E DUP7 DUP7 PUSH2 0x1AFC JUMP JUMPDEST SWAP1 POP PUSH1 0x1 DUP6 PUSH2 0x165D SWAP2 SWAP1 PUSH2 0x2977 JUMP JUMPDEST SWAP5 POP PUSH1 0x0 PUSH1 0x5 PUSH1 0xE0 DUP4 AND PUSH1 0xFF AND SWAP1 SHR SWAP1 POP PUSH1 0x0 PUSH1 0x1F DUP4 AND SWAP1 POP PUSH1 0x1C DUP2 PUSH1 0xFF AND LT PUSH2 0x168A JUMPI PUSH2 0x1689 PUSH2 0x2E0B JUMP JUMPDEST JUMPDEST PUSH1 0x18 DUP2 PUSH1 0xFF AND LT ISZERO PUSH2 0x16AD JUMPI DUP2 DUP2 DUP9 DUP2 PUSH1 0xFF AND SWAP2 POP SWAP6 POP SWAP6 POP SWAP6 POP POP POP POP PUSH2 0x17C8 JUMP JUMPDEST PUSH1 0x18 DUP2 PUSH1 0xFF AND EQ ISZERO PUSH2 0x1703 JUMPI PUSH1 0x0 PUSH2 0x16C5 DUP10 DUP10 PUSH2 0x1AFC JUMP JUMPDEST SWAP1 POP PUSH1 0x1 DUP9 PUSH2 0x16D4 SWAP2 SWAP1 PUSH2 0x2977 JUMP JUMPDEST SWAP8 POP PUSH1 0x18 DUP2 PUSH1 0xFF AND LT ISZERO PUSH2 0x16EB JUMPI PUSH2 0x16EA PUSH2 0x2E0B JUMP JUMPDEST JUMPDEST DUP3 DUP2 DUP10 DUP2 PUSH1 0xFF AND SWAP2 POP SWAP7 POP SWAP7 POP SWAP7 POP POP POP POP POP PUSH2 0x17C8 JUMP JUMPDEST PUSH1 0x19 DUP2 PUSH1 0xFF AND EQ ISZERO PUSH2 0x1745 JUMPI PUSH1 0x0 PUSH2 0x171B DUP10 DUP10 PUSH2 0x1B63 JUMP JUMPDEST SWAP1 POP PUSH1 0x2 DUP9 PUSH2 0x172A SWAP2 SWAP1 PUSH2 0x2977 JUMP JUMPDEST SWAP8 POP DUP3 DUP2 DUP10 DUP2 PUSH2 0xFFFF AND SWAP2 POP SWAP7 POP SWAP7 POP SWAP7 POP POP POP POP POP PUSH2 0x17C8 JUMP JUMPDEST PUSH1 0x1A DUP2 PUSH1 0xFF AND EQ ISZERO PUSH2 0x1789 JUMPI PUSH1 0x0 PUSH2 0x175D DUP10 DUP10 PUSH2 0x1BCA JUMP JUMPDEST SWAP1 POP PUSH1 0x4 DUP9 PUSH2 0x176C SWAP2 SWAP1 PUSH2 0x2977 JUMP JUMPDEST SWAP8 POP DUP3 DUP2 DUP10 DUP2 PUSH4 0xFFFFFFFF AND SWAP2 POP SWAP7 POP SWAP7 POP SWAP7 POP POP POP POP POP PUSH2 0x17C8 JUMP JUMPDEST PUSH1 0x1B DUP2 PUSH1 0xFF AND EQ PUSH2 0x179D JUMPI PUSH2 0x179C PUSH2 0x2E0B JUMP JUMPDEST JUMPDEST PUSH1 0x0 PUSH2 0x17A9 DUP10 DUP10 PUSH2 0x1C31 JUMP JUMPDEST SWAP1 POP PUSH1 0x8 DUP9 PUSH2 0x17B8 SWAP2 SWAP1 PUSH2 0x2977 JUMP JUMPDEST SWAP8 POP DUP3 DUP2 DUP10 SWAP7 POP SWAP7 POP SWAP7 POP POP POP POP POP JUMPDEST SWAP3 POP SWAP3 POP SWAP3 JUMP JUMPDEST PUSH2 0x17D7 PUSH2 0x1CF8 JUMP JUMPDEST PUSH1 0x0 DUP4 PUSH1 0x0 ADD MLOAD MLOAD SWAP1 POP PUSH1 0x0 PUSH1 0x1 DUP3 PUSH2 0x17F0 SWAP2 SWAP1 PUSH2 0x2977 JUMP JUMPDEST SWAP1 POP DUP5 PUSH1 0x20 ADD MLOAD DUP3 LT PUSH2 0x1814 JUMPI PUSH2 0x1813 DUP6 PUSH1 0x2 DUP4 PUSH2 0x180E SWAP2 SWAP1 PUSH2 0x2B6F JUMP JUMPDEST PUSH2 0x1C98 JUMP JUMPDEST JUMPDEST DUP5 MLOAD PUSH1 0x20 DUP4 DUP3 ADD ADD DUP6 DUP2 MSTORE8 DUP2 MLOAD DUP4 GT ISZERO PUSH2 0x182C JUMPI DUP3 DUP3 MSTORE JUMPDEST POP POP DUP5 SWAP3 POP POP POP SWAP3 SWAP2 POP POP JUMP JUMPDEST PUSH2 0x1841 PUSH2 0x1CF8 JUMP JUMPDEST PUSH1 0x0 DUP5 PUSH1 0x0 ADD MLOAD MLOAD SWAP1 POP PUSH1 0x0 DUP2 DUP5 PUSH2 0x1859 SWAP2 SWAP1 PUSH2 0x2977 JUMP JUMPDEST SWAP1 POP DUP6 PUSH1 0x20 ADD MLOAD DUP2 GT ISZERO PUSH2 0x187E JUMPI PUSH2 0x187D DUP7 PUSH1 0x2 DUP4 PUSH2 0x1878 SWAP2 SWAP1 PUSH2 0x2B6F JUMP JUMPDEST PUSH2 0x1C98 JUMP JUMPDEST JUMPDEST PUSH1 0x0 PUSH1 0x1 DUP6 PUSH2 0x100 PUSH2 0x1890 SWAP2 SWAP1 PUSH2 0x2A51 JUMP JUMPDEST PUSH2 0x189A SWAP2 SWAP1 PUSH2 0x2BC9 JUMP JUMPDEST SWAP1 POP DUP7 MLOAD DUP3 DUP2 ADD DUP8 DUP4 NOT DUP3 MLOAD AND OR DUP2 MSTORE DUP2 MLOAD DUP5 GT ISZERO PUSH2 0x18B7 JUMPI DUP4 DUP3 MSTORE JUMPDEST POP POP DUP7 SWAP4 POP POP POP POP SWAP4 SWAP3 POP POP POP JUMP JUMPDEST PUSH2 0x18CE PUSH2 0x1CF8 JUMP JUMPDEST DUP3 MLOAD DUP3 GT ISZERO PUSH2 0x18DC JUMPI PUSH1 0x0 DUP1 REVERT JUMPDEST PUSH1 0x0 DUP5 PUSH1 0x0 ADD MLOAD MLOAD SWAP1 POP PUSH1 0x0 DUP4 DUP3 PUSH2 0x18F4 SWAP2 SWAP1 PUSH2 0x2977 JUMP JUMPDEST SWAP1 POP DUP6 PUSH1 0x20 ADD MLOAD DUP2 GT ISZERO PUSH2 0x1919 JUMPI PUSH2 0x1918 DUP7 PUSH1 0x2 DUP4 PUSH2 0x1913 SWAP2 SWAP1 PUSH2 0x2B6F JUMP JUMPDEST PUSH2 0x1C98 JUMP JUMPDEST JUMPDEST PUSH1 0x0 DUP1 DUP8 MLOAD DUP1 MLOAD DUP6 PUSH1 0x20 DUP4 ADD ADD SWAP4 POP DUP1 DUP6 GT ISZERO PUSH2 0x1934 JUMPI DUP5 DUP3 MSTORE JUMPDEST PUSH1 0x20 DUP10 ADD SWAP3 POP POP POP JUMPDEST PUSH1 0x20 DUP7 LT PUSH2 0x197B JUMPI DUP1 MLOAD DUP3 MSTORE PUSH1 0x20 DUP3 PUSH2 0x1956 SWAP2 SWAP1 PUSH2 0x2977 JUMP JUMPDEST SWAP2 POP PUSH1 0x20 DUP2 PUSH2 0x1965 SWAP2 SWAP1 PUSH2 0x2977 JUMP JUMPDEST SWAP1 POP PUSH1 0x20 DUP7 PUSH2 0x1974 SWAP2 SWAP1 PUSH2 0x2BC9 JUMP JUMPDEST SWAP6 POP PUSH2 0x193D JUMP JUMPDEST PUSH1 0x0 PUSH1 0x1 DUP8 PUSH1 0x20 SUB PUSH2 0x100 EXP SUB SWAP1 POP DUP1 NOT DUP3 MLOAD AND DUP2 DUP5 MLOAD AND DUP2 DUP2 OR DUP6 MSTORE POP POP POP DUP8 SWAP5 POP POP POP POP POP SWAP4 SWAP3 POP POP POP JUMP JUMPDEST PUSH1 0x0 DUP1 PUSH1 0x0 SWAP1 POP PUSH27 0x184F03E93FF9F4DAA797ED6E38ED64BF6A1F010000000000000000 DUP4 LT PUSH2 0x1A07 JUMPI PUSH27 0x184F03E93FF9F4DAA797ED6E38ED64BF6A1F010000000000000000 DUP4 DUP2 PUSH2 0x19FD JUMPI PUSH2 0x19FC PUSH2 0x2E69 JUMP JUMPDEST JUMPDEST DIV SWAP3 POP PUSH1 0x40 DUP2 ADD SWAP1 POP JUMPDEST PUSH14 0x4EE2D6D415B85ACEF8100000000 DUP4 LT PUSH2 0x1A44 JUMPI PUSH14 0x4EE2D6D415B85ACEF8100000000 DUP4 DUP2 PUSH2 0x1A3A JUMPI PUSH2 0x1A39 PUSH2 0x2E69 JUMP JUMPDEST JUMPDEST DIV SWAP3 POP PUSH1 0x20 DUP2 ADD SWAP1 POP JUMPDEST PUSH7 0x2386F26FC10000 DUP4 LT PUSH2 0x1A73 JUMPI PUSH7 0x2386F26FC10000 DUP4 DUP2 PUSH2 0x1A69 JUMPI PUSH2 0x1A68 PUSH2 0x2E69 JUMP JUMPDEST JUMPDEST DIV SWAP3 POP PUSH1 0x10 DUP2 ADD SWAP1 POP JUMPDEST PUSH4 0x5F5E100 DUP4 LT PUSH2 0x1A9C JUMPI PUSH4 0x5F5E100 DUP4 DUP2 PUSH2 0x1A92 JUMPI PUSH2 0x1A91 PUSH2 0x2E69 JUMP JUMPDEST JUMPDEST DIV SWAP3 POP PUSH1 0x8 DUP2 ADD SWAP1 POP JUMPDEST PUSH2 0x2710 DUP4 LT PUSH2 0x1AC1 JUMPI PUSH2 0x2710 DUP4 DUP2 PUSH2 0x1AB7 JUMPI PUSH2 0x1AB6 PUSH2 0x2E69 JUMP JUMPDEST JUMPDEST DIV SWAP3 POP PUSH1 0x4 DUP2 ADD SWAP1 POP JUMPDEST PUSH1 0x64 DUP4 LT PUSH2 0x1AE4 JUMPI PUSH1 0x64 DUP4 DUP2 PUSH2 0x1ADA JUMPI PUSH2 0x1AD9 PUSH2 0x2E69 JUMP JUMPDEST JUMPDEST DIV SWAP3 POP PUSH1 0x2 DUP2 ADD SWAP1 POP JUMPDEST PUSH1 0xA DUP4 LT PUSH2 0x1AF3 JUMPI PUSH1 0x1 DUP2 ADD SWAP1 POP JUMPDEST DUP1 SWAP2 POP POP SWAP2 SWAP1 POP JUMP JUMPDEST PUSH1 0x0 PUSH1 0x1 DUP3 PUSH2 0x1B0B SWAP2 SWAP1 PUSH2 0x2977 JUMP JUMPDEST DUP4 MLOAD LT ISZERO PUSH2 0x1B4E JUMPI PUSH1 0x40 MLOAD PUSH32 0x8C379A000000000000000000000000000000000000000000000000000000000 DUP2 MSTORE PUSH1 0x4 ADD PUSH2 0x1B45 SWAP1 PUSH2 0x26D0 JUMP JUMPDEST PUSH1 0x40 MLOAD DUP1 SWAP2 SUB SWAP1 REVERT JUMPDEST PUSH1 0x0 DUP3 PUSH1 0x1 ADD DUP5 ADD MLOAD SWAP1 POP DUP1 SWAP2 POP POP SWAP3 SWAP2 POP POP JUMP JUMPDEST PUSH1 0x0 PUSH1 0x2 DUP3 PUSH2 0x1B72 SWAP2 SWAP1 PUSH2 0x2977 JUMP JUMPDEST DUP4 MLOAD LT ISZERO PUSH2 0x1BB5 JUMPI PUSH1 0x40 MLOAD PUSH32 0x8C379A000000000000000000000000000000000000000000000000000000000 DUP2 MSTORE PUSH1 0x4 ADD PUSH2 0x1BAC SWAP1 PUSH2 0x26D0 JUMP JUMPDEST PUSH1 0x40 MLOAD DUP1 SWAP2 SUB SWAP1 REVERT JUMPDEST PUSH1 0x0 DUP3 PUSH1 0x2 ADD DUP5 ADD MLOAD SWAP1 POP DUP1 SWAP2 POP POP SWAP3 SWAP2 POP POP JUMP JUMPDEST PUSH1 0x0 PUSH1 0x4 DUP3 PUSH2 0x1BD9 SWAP2 SWAP1 PUSH2 0x2977 JUMP JUMPDEST DUP4 MLOAD LT ISZERO PUSH2 0x1C1C JUMPI PUSH1 0x40 MLOAD PUSH32 0x8C379A000000000000000000000000000000000000000000000000000000000 DUP2 MSTORE PUSH1 0x4 ADD PUSH2 0x1C13 SWAP1 PUSH2 0x26D0 JUMP JUMPDEST PUSH1 0x40 MLOAD DUP1 SWAP2 SUB SWAP1 REVERT JUMPDEST PUSH1 0x0 DUP3 PUSH1 0x4 ADD DUP5 ADD MLOAD SWAP1 POP DUP1 SWAP2 POP POP SWAP3 SWAP2 POP POP JUMP JUMPDEST PUSH1 0x0 PUSH1 0x8 DUP3 PUSH2 0x1C40 SWAP2 SWAP1 PUSH2 0x2977 JUMP JUMPDEST DUP4 MLOAD LT ISZERO PUSH2 0x1C83 JUMPI PUSH1 0x40 MLOAD PUSH32 0x8C379A000000000000000000000000000000000000000000000000000000000 DUP2 MSTORE PUSH1 0x4 ADD PUSH2 0x1C7A SWAP1 PUSH2 0x26D0 JUMP JUMPDEST PUSH1 0x40 MLOAD DUP1 SWAP2 SUB SWAP1 REVERT JUMPDEST PUSH1 0x0 DUP3 PUSH1 0x8 ADD DUP5 ADD MLOAD SWAP1 POP DUP1 SWAP2 POP POP SWAP3 SWAP2 POP POP JUMP JUMPDEST PUSH1 0x0 DUP3 PUSH1 0x0 ADD MLOAD SWAP1 POP PUSH2 0x1CAB DUP4 DUP4 PUSH2 0x1328 JUMP JUMPDEST POP PUSH2 0x1CB6 DUP4 DUP3 PUSH2 0x154A JUMP JUMPDEST POP POP POP POP JUMP JUMPDEST PUSH1 0x40 MLOAD DUP1 PUSH1 0x40 ADD PUSH1 0x40 MSTORE DUP1 PUSH1 0x60 DUP2 MSTORE PUSH1 0x20 ADD PUSH1 0x0 ISZERO ISZERO DUP2 MSTORE POP SWAP1 JUMP JUMPDEST PUSH1 0x40 MLOAD DUP1 PUSH1 0x40 ADD PUSH1 0x40 MSTORE DUP1 PUSH2 0x1CEB PUSH2 0x1CF8 JUMP JUMPDEST DUP2 MSTORE PUSH1 0x20 ADD PUSH1 0x0 DUP2 MSTORE POP SWAP1 JUMP JUMPDEST PUSH1 0x40 MLOAD DUP1 PUSH1 0x40 ADD PUSH1 0x40 MSTORE DUP1 PUSH1 0x60 DUP2 MSTORE PUSH1 0x20 ADD PUSH1 0x0 DUP2 MSTORE POP SWAP1 JUMP JUMPDEST PUSH1 0x0 PUSH2 0x1D25 PUSH2 0x1D20 DUP5 PUSH2 0x2868 JUMP JUMPDEST PUSH2 0x2843 JUMP JUMPDEST SWAP1 POP DUP3 DUP2 MSTORE PUSH1 0x20 DUP2 ADD DUP5 DUP5 DUP5 ADD GT ISZERO PUSH2 0x1D41 JUMPI PUSH2 0x1D40 PUSH2 0x2F34 JUMP JUMPDEST JUMPDEST PUSH2 0x1D4C DUP5 DUP3 DUP6 PUSH2 0x2CAE JUMP JUMPDEST POP SWAP4 SWAP3 POP POP POP JUMP JUMPDEST PUSH1 0x0 PUSH2 0x1D67 PUSH2 0x1D62 DUP5 PUSH2 0x2868 JUMP JUMPDEST PUSH2 0x2843 JUMP JUMPDEST SWAP1 POP DUP3 DUP2 MSTORE PUSH1 0x20 DUP2 ADD DUP5 DUP5 DUP5 ADD GT ISZERO PUSH2 0x1D83 JUMPI PUSH2 0x1D82 PUSH2 0x2F34 JUMP JUMPDEST JUMPDEST PUSH2 0x1D8E DUP5 DUP3 DUP6 PUSH2 0x2CBD JUMP JUMPDEST POP SWAP4 SWAP3 POP POP POP JUMP JUMPDEST PUSH1 0x0 PUSH2 0x1DA9 PUSH2 0x1DA4 DUP5 PUSH2 0x2899 JUMP JUMPDEST PUSH2 0x2843 JUMP JUMPDEST SWAP1 POP DUP3 DUP2 MSTORE PUSH1 0x20 DUP2 ADD DUP5 DUP5 DUP5 ADD GT ISZERO PUSH2 0x1DC5 JUMPI PUSH2 0x1DC4 PUSH2 0x2F34 JUMP JUMPDEST JUMPDEST PUSH2 0x1DD0 DUP5 DUP3 DUP6 PUSH2 0x2CBD JUMP JUMPDEST POP SWAP4 SWAP3 POP POP POP JUMP JUMPDEST PUSH1 0x0 DUP2 CALLDATALOAD SWAP1 POP PUSH2 0x1DE7 DUP2 PUSH2 0x309A JUMP JUMPDEST SWAP3 SWAP2 POP POP JUMP JUMPDEST PUSH1 0x0 DUP2 CALLDATALOAD SWAP1 POP PUSH2 0x1DFC DUP2 PUSH2 0x30B1 JUMP JUMPDEST SWAP3 SWAP2 POP POP JUMP JUMPDEST PUSH1 0x0 DUP2 CALLDATALOAD SWAP1 POP PUSH2 0x1E11 DUP2 PUSH2 0x30C8 JUMP JUMPDEST SWAP3 SWAP2 POP POP JUMP JUMPDEST PUSH1 0x0 DUP2 MLOAD SWAP1 POP PUSH2 0x1E26 DUP2 PUSH2 0x30C8 JUMP JUMPDEST SWAP3 SWAP2 POP POP JUMP JUMPDEST PUSH1 0x0 DUP2 CALLDATALOAD SWAP1 POP PUSH2 0x1E3B DUP2 PUSH2 0x30DF JUMP JUMPDEST SWAP3 SWAP2 POP POP JUMP JUMPDEST PUSH1 0x0 DUP3 PUSH1 0x1F DUP4 ADD SLT PUSH2 0x1E56 JUMPI PUSH2 0x1E55 PUSH2 0x2F25 JUMP JUMPDEST JUMPDEST DUP2 CALLDATALOAD PUSH2 0x1E66 DUP5 DUP3 PUSH1 0x20 DUP7 ADD PUSH2 0x1D12 JUMP JUMPDEST SWAP2 POP POP SWAP3 SWAP2 POP POP JUMP JUMPDEST PUSH1 0x0 DUP3 PUSH1 0x1F DUP4 ADD SLT PUSH2 0x1E84 JUMPI PUSH2 0x1E83 PUSH2 0x2F25 JUMP JUMPDEST JUMPDEST DUP2 MLOAD PUSH2 0x1E94 DUP5 DUP3 PUSH1 0x20 DUP7 ADD PUSH2 0x1D54 JUMP JUMPDEST SWAP2 POP POP SWAP3 SWAP2 POP POP JUMP JUMPDEST PUSH1 0x0 DUP2 MLOAD SWAP1 POP PUSH2 0x1EAC DUP2 PUSH2 0x30F6 JUMP JUMPDEST SWAP3 SWAP2 POP POP JUMP JUMPDEST PUSH1 0x0 DUP3 PUSH1 0x1F DUP4 ADD SLT PUSH2 0x1EC7 JUMPI PUSH2 0x1EC6 PUSH2 0x2F25 JUMP JUMPDEST JUMPDEST DUP2 MLOAD PUSH2 0x1ED7 DUP5 DUP3 PUSH1 0x20 DUP7 ADD PUSH2 0x1D96 JUMP JUMPDEST SWAP2 POP POP SWAP3 SWAP2 POP POP JUMP JUMPDEST PUSH1 0x0 PUSH1 0x40 DUP3 DUP5 SUB SLT ISZERO PUSH2 0x1EF6 JUMPI PUSH2 0x1EF5 PUSH2 0x2F2A JUMP JUMPDEST JUMPDEST PUSH2 0x1F00 PUSH1 0x40 PUSH2 0x2843 JUMP JUMPDEST SWAP1 POP PUSH1 0x0 DUP3 ADD CALLDATALOAD PUSH8 0xFFFFFFFFFFFFFFFF DUP2 GT ISZERO PUSH2 0x1F20 JUMPI PUSH2 0x1F1F PUSH2 0x2F2F JUMP JUMPDEST JUMPDEST PUSH2 0x1F2C DUP5 DUP3 DUP6 ADD PUSH2 0x1E41 JUMP JUMPDEST PUSH1 0x0 DUP4 ADD MSTORE POP PUSH1 0x20 PUSH2 0x1F40 DUP5 DUP3 DUP6 ADD PUSH2 0x1E02 JUMP JUMPDEST PUSH1 0x20 DUP4 ADD MSTORE POP SWAP3 SWAP2 POP POP JUMP JUMPDEST PUSH1 0x0 PUSH1 0x40 DUP3 DUP5 SUB SLT ISZERO PUSH2 0x1F62 JUMPI PUSH2 0x1F61 PUSH2 0x2F2A JUMP JUMPDEST JUMPDEST PUSH2 0x1F6C PUSH1 0x40 PUSH2 0x2843 JUMP JUMPDEST SWAP1 POP PUSH1 0x0 PUSH2 0x1F7C DUP5 DUP3 DUP6 ADD PUSH2 0x1E17 JUMP JUMPDEST PUSH1 0x0 DUP4 ADD MSTORE POP PUSH1 0x20 DUP3 ADD MLOAD PUSH8 0xFFFFFFFFFFFFFFFF DUP2 GT ISZERO PUSH2 0x1FA0 JUMPI PUSH2 0x1F9F PUSH2 0x2F2F JUMP JUMPDEST JUMPDEST PUSH2 0x1FAC DUP5 DUP3 DUP6 ADD PUSH2 0x1EB2 JUMP JUMPDEST PUSH1 0x20 DUP4 ADD MSTORE POP SWAP3 SWAP2 POP POP JUMP JUMPDEST PUSH1 0x0 DUP2 CALLDATALOAD SWAP1 POP PUSH2 0x1FC7 DUP2 PUSH2 0x310D JUMP JUMPDEST SWAP3 SWAP2 POP POP JUMP JUMPDEST PUSH1 0x0 DUP2 MLOAD SWAP1 POP PUSH2 0x1FDC DUP2 PUSH2 0x3124 JUMP JUMPDEST SWAP3 SWAP2 POP POP JUMP JUMPDEST PUSH1 0x0 PUSH1 0x20 DUP3 DUP5 SUB SLT ISZERO PUSH2 0x1FF8 JUMPI PUSH2 0x1FF7 PUSH2 0x2F3E JUMP JUMPDEST JUMPDEST PUSH1 0x0 PUSH2 0x2006 DUP5 DUP3 DUP6 ADD PUSH2 0x1DD8 JUMP JUMPDEST SWAP2 POP POP SWAP3 SWAP2 POP POP JUMP JUMPDEST PUSH1 0x0 PUSH1 0x20 DUP3 DUP5 SUB SLT ISZERO PUSH2 0x2025 JUMPI PUSH2 0x2024 PUSH2 0x2F3E JUMP JUMPDEST JUMPDEST PUSH1 0x0 PUSH2 0x2033 DUP5 DUP3 DUP6 ADD PUSH2 0x1DED JUMP JUMPDEST SWAP2 POP POP SWAP3 SWAP2 POP POP JUMP JUMPDEST PUSH1 0x0 PUSH1 0x20 DUP3 DUP5 SUB SLT ISZERO PUSH2 0x2052 JUMPI PUSH2 0x2051 PUSH2 0x2F3E JUMP JUMPDEST JUMPDEST PUSH1 0x0 PUSH2 0x2060 DUP5 DUP3 DUP6 ADD PUSH2 0x1E2C JUMP JUMPDEST SWAP2 POP POP SWAP3 SWAP2 POP POP JUMP JUMPDEST PUSH1 0x0 DUP1 PUSH1 0x0 PUSH1 0x60 DUP5 DUP7 SUB SLT ISZERO PUSH2 0x2082 JUMPI PUSH2 0x2081 PUSH2 0x2F3E JUMP JUMPDEST JUMPDEST PUSH1 0x0 PUSH2 0x2090 DUP7 DUP3 DUP8 ADD PUSH2 0x1E9D JUMP JUMPDEST SWAP4 POP POP PUSH1 0x20 PUSH2 0x20A1 DUP7 DUP3 DUP8 ADD PUSH2 0x1FCD JUMP JUMPDEST SWAP3 POP POP PUSH1 0x40 DUP5 ADD MLOAD PUSH8 0xFFFFFFFFFFFFFFFF DUP2 GT ISZERO PUSH2 0x20C2 JUMPI PUSH2 0x20C1 PUSH2 0x2F39 JUMP JUMPDEST JUMPDEST PUSH2 0x20CE DUP7 DUP3 DUP8 ADD PUSH2 0x1E6F JUMP JUMPDEST SWAP2 POP POP SWAP3 POP SWAP3 POP SWAP3 JUMP JUMPDEST PUSH1 0x0 PUSH1 0x20 DUP3 DUP5 SUB SLT ISZERO PUSH2 0x20EE JUMPI PUSH2 0x20ED PUSH2 0x2F3E JUMP JUMPDEST JUMPDEST PUSH1 0x0 DUP3 ADD CALLDATALOAD PUSH8 0xFFFFFFFFFFFFFFFF DUP2 GT ISZERO PUSH2 0x210C JUMPI PUSH2 0x210B PUSH2 0x2F39 JUMP JUMPDEST JUMPDEST PUSH2 0x2118 DUP5 DUP3 DUP6 ADD PUSH2 0x1EE0 JUMP JUMPDEST SWAP2 POP POP SWAP3 SWAP2 POP POP JUMP JUMPDEST PUSH1 0x0 PUSH1 0x20 DUP3 DUP5 SUB SLT ISZERO PUSH2 0x2137 JUMPI PUSH2 0x2136 PUSH2 0x2F3E JUMP JUMPDEST JUMPDEST PUSH1 0x0 DUP3 ADD MLOAD PUSH8 0xFFFFFFFFFFFFFFFF DUP2 GT ISZERO PUSH2 0x2155 JUMPI PUSH2 0x2154 PUSH2 0x2F39 JUMP JUMPDEST JUMPDEST PUSH2 0x2161 DUP5 DUP3 DUP6 ADD PUSH2 0x1F4C JUMP JUMPDEST SWAP2 POP POP SWAP3 SWAP2 POP POP JUMP JUMPDEST PUSH1 0x0 PUSH1 0x20 DUP3 DUP5 SUB SLT ISZERO PUSH2 0x2180 JUMPI PUSH2 0x217F PUSH2 0x2F3E JUMP JUMPDEST JUMPDEST PUSH1 0x0 PUSH2 0x218E DUP5 DUP3 DUP6 ADD PUSH2 0x1FB8 JUMP JUMPDEST SWAP2 POP POP SWAP3 SWAP2 POP POP JUMP JUMPDEST PUSH1 0x0 PUSH2 0x21A3 DUP4 DUP4 PUSH2 0x21AF JUMP JUMPDEST PUSH1 0x20 DUP4 ADD SWAP1 POP SWAP3 SWAP2 POP POP JUMP JUMPDEST PUSH2 0x21B8 DUP2 PUSH2 0x2C1C JUMP JUMPDEST DUP3 MSTORE POP POP JUMP JUMPDEST PUSH2 0x21C7 DUP2 PUSH2 0x2C1C JUMP JUMPDEST DUP3 MSTORE POP POP JUMP JUMPDEST PUSH2 0x21D6 DUP2 PUSH2 0x2C0A JUMP JUMPDEST DUP3 MSTORE POP POP JUMP JUMPDEST PUSH2 0x21ED PUSH2 0x21E8 DUP3 PUSH2 0x2C0A JUMP JUMPDEST PUSH2 0x2DB6 JUMP JUMPDEST DUP3 MSTORE POP POP JUMP JUMPDEST PUSH1 0x0 PUSH2 0x21FE DUP3 PUSH2 0x28EF JUMP JUMPDEST PUSH2 0x2208 DUP2 DUP6 PUSH2 0x291D JUMP JUMPDEST SWAP4 POP PUSH2 0x2213 DUP4 PUSH2 0x28CA JUMP JUMPDEST DUP1 PUSH1 0x0 JUMPDEST DUP4 DUP2 LT ISZERO PUSH2 0x2244 JUMPI DUP2 MLOAD PUSH2 0x222B DUP9 DUP3 PUSH2 0x2197 JUMP JUMPDEST SWAP8 POP PUSH2 0x2236 DUP4 PUSH2 0x2910 JUMP JUMPDEST SWAP3 POP POP PUSH1 0x1 DUP2 ADD SWAP1 POP PUSH2 0x2217 JUMP JUMPDEST POP DUP6 SWAP4 POP POP POP POP SWAP3 SWAP2 POP POP JUMP JUMPDEST PUSH2 0x225A DUP2 PUSH2 0x2C2E JUMP JUMPDEST DUP3 MSTORE POP POP JUMP JUMPDEST PUSH2 0x2269 DUP2 PUSH2 0x2C2E JUMP JUMPDEST DUP3 MSTORE POP POP JUMP JUMPDEST PUSH1 0x0 PUSH2 0x227A DUP3 PUSH2 0x28FA JUMP JUMPDEST PUSH2 0x2284 DUP2 DUP6 PUSH2 0x292E JUMP JUMPDEST SWAP4 POP PUSH2 0x2294 DUP2 DUP6 PUSH1 0x20 DUP7 ADD PUSH2 0x2CBD JUMP JUMPDEST PUSH2 0x229D DUP2 PUSH2 0x2F43 JUMP JUMPDEST DUP5 ADD SWAP2 POP POP SWAP3 SWAP2 POP POP JUMP JUMPDEST PUSH1 0x0 PUSH2 0x22B3 DUP3 PUSH2 0x28FA JUMP JUMPDEST PUSH2 0x22BD DUP2 DUP6 PUSH2 0x293F JUMP JUMPDEST SWAP4 POP PUSH2 0x22CD DUP2 DUP6 PUSH1 0x20 DUP7 ADD PUSH2 0x2CBD JUMP JUMPDEST PUSH2 0x22D6 DUP2 PUSH2 0x2F43 JUMP JUMPDEST DUP5 ADD SWAP2 POP POP SWAP3 SWAP2 POP POP JUMP JUMPDEST PUSH1 0x0 PUSH2 0x22EC DUP3 PUSH2 0x28FA JUMP JUMPDEST PUSH2 0x22F6 DUP2 DUP6 PUSH2 0x2950 JUMP JUMPDEST SWAP4 POP PUSH2 0x2306 DUP2 DUP6 PUSH1 0x20 DUP7 ADD PUSH2 0x2CBD JUMP JUMPDEST DUP1 DUP5 ADD SWAP2 POP POP SWAP3 SWAP2 POP POP JUMP JUMPDEST PUSH1 0x0 DUP2 SLOAD PUSH2 0x231F DUP2 PUSH2 0x2CF0 JUMP JUMPDEST PUSH2 0x2329 DUP2 DUP7 PUSH2 0x292E JUMP JUMPDEST SWAP5 POP PUSH1 0x1 DUP3 AND PUSH1 0x0 DUP2 EQ PUSH2 0x2344 JUMPI PUSH1 0x1 DUP2 EQ PUSH2 0x2356 JUMPI PUSH2 0x2389 JUMP JUMPDEST PUSH1 0xFF NOT DUP4 AND DUP7 MSTORE PUSH1 0x20 DUP7 ADD SWAP4 POP PUSH2 0x2389 JUMP JUMPDEST PUSH2 0x235F DUP6 PUSH2 0x28DA JUMP JUMPDEST PUSH1 0x0 JUMPDEST DUP4 DUP2 LT ISZERO PUSH2 0x2381 JUMPI DUP2 SLOAD DUP2 DUP10 ADD MSTORE PUSH1 0x1 DUP3 ADD SWAP2 POP PUSH1 0x20 DUP2 ADD SWAP1 POP PUSH2 0x2362 JUMP JUMPDEST DUP1 DUP9 ADD SWAP6 POP POP POP JUMPDEST POP POP POP SWAP3 SWAP2 POP POP JUMP JUMPDEST PUSH1 0x0 PUSH2 0x239D DUP3 PUSH2 0x2905 JUMP JUMPDEST PUSH2 0x23A7 DUP2 DUP6 PUSH2 0x295B JUMP JUMPDEST SWAP4 POP PUSH2 0x23B7 DUP2 DUP6 PUSH1 0x20 DUP7 ADD PUSH2 0x2CBD JUMP JUMPDEST PUSH2 0x23C0 DUP2 PUSH2 0x2F43 JUMP JUMPDEST DUP5 ADD SWAP2 POP POP SWAP3 SWAP2 POP POP JUMP JUMPDEST PUSH1 0x0 PUSH2 0x23D6 DUP3 PUSH2 0x2905 JUMP JUMPDEST PUSH2 0x23E0 DUP2 DUP6 PUSH2 0x296C JUMP JUMPDEST SWAP4 POP PUSH2 0x23F0 DUP2 DUP6 PUSH1 0x20 DUP7 ADD PUSH2 0x2CBD JUMP JUMPDEST DUP1 DUP5 ADD SWAP2 POP POP SWAP3 SWAP2 POP POP JUMP JUMPDEST PUSH1 0x0 PUSH2 0x2409 PUSH1 0x14 DUP4 PUSH2 0x295B JUMP JUMPDEST SWAP2 POP PUSH2 0x2414 DUP3 PUSH2 0x2F7B JUMP JUMPDEST PUSH1 0x20 DUP3 ADD SWAP1 POP SWAP2 SWAP1 POP JUMP JUMPDEST PUSH1 0x0 PUSH2 0x242C PUSH1 0x15 DUP4 PUSH2 0x295B JUMP JUMPDEST SWAP2 POP PUSH2 0x2437 DUP3 PUSH2 0x2FA4 JUMP JUMPDEST PUSH1 0x20 DUP3 ADD SWAP1 POP SWAP2 SWAP1 POP JUMP JUMPDEST PUSH1 0x0 PUSH2 0x244F PUSH1 0xB DUP4 PUSH2 0x295B JUMP JUMPDEST SWAP2 POP PUSH2 0x245A DUP3 PUSH2 0x2FCD JUMP JUMPDEST PUSH1 0x20 DUP3 ADD SWAP1 POP SWAP2 SWAP1 POP JUMP JUMPDEST PUSH1 0x0 PUSH2 0x2472 PUSH1 0x1C DUP4 PUSH2 0x295B JUMP JUMPDEST SWAP2 POP PUSH2 0x247D DUP3 PUSH2 0x2FF6 JUMP JUMPDEST PUSH1 0x20 DUP3 ADD SWAP1 POP SWAP2 SWAP1 POP JUMP JUMPDEST PUSH1 0x0 PUSH2 0x2495 PUSH1 0x12 DUP4 PUSH2 0x296C JUMP JUMPDEST SWAP2 POP PUSH2 0x24A0 DUP3 PUSH2 0x301F JUMP JUMPDEST PUSH1 0x12 DUP3 ADD SWAP1 POP SWAP2 SWAP1 POP JUMP JUMPDEST PUSH1 0x0 PUSH2 0x24B8 PUSH1 0xC DUP4 PUSH2 0x295B JUMP JUMPDEST SWAP2 POP PUSH2 0x24C3 DUP3 PUSH2 0x3048 JUMP JUMPDEST PUSH1 0x20 DUP3 ADD SWAP1 POP SWAP2 SWAP1 POP JUMP JUMPDEST PUSH1 0x0 PUSH2 0x24DB PUSH1 0xA DUP4 PUSH2 0x295B JUMP JUMPDEST SWAP2 POP PUSH2 0x24E6 DUP3 PUSH2 0x3071 JUMP JUMPDEST PUSH1 0x20 DUP3 ADD SWAP1 POP SWAP2 SWAP1 POP JUMP JUMPDEST PUSH1 0x0 PUSH1 0x40 DUP4 ADD PUSH1 0x0 DUP4 ADD MLOAD DUP5 DUP3 SUB PUSH1 0x0 DUP7 ADD MSTORE PUSH2 0x250E DUP3 DUP3 PUSH2 0x226F JUMP JUMPDEST SWAP2 POP POP PUSH1 0x20 DUP4 ADD MLOAD PUSH2 0x2523 PUSH1 0x20 DUP7 ADD DUP3 PUSH2 0x2251 JUMP JUMPDEST POP DUP1 SWAP2 POP POP SWAP3 SWAP2 POP POP JUMP JUMPDEST PUSH1 0x0 PUSH1 0x40 DUP4 ADD PUSH1 0x0 DUP1 DUP5 ADD DUP6 DUP4 SUB PUSH1 0x0 DUP8 ADD MSTORE PUSH2 0x254B DUP4 DUP3 PUSH2 0x2312 JUMP JUMPDEST SWAP3 POP POP PUSH1 0x1 DUP5 ADD SLOAD SWAP1 POP PUSH2 0x255E DUP2 PUSH2 0x2D22 JUMP JUMPDEST PUSH2 0x256B PUSH1 0x20 DUP8 ADD DUP3 PUSH2 0x2251 JUMP JUMPDEST POP DUP2 SWAP3 POP POP POP SWAP3 SWAP2 POP POP JUMP JUMPDEST PUSH2 0x2580 DUP2 PUSH2 0x2C90 JUMP JUMPDEST DUP3 MSTORE POP POP JUMP JUMPDEST PUSH2 0x258F DUP2 PUSH2 0x2C9A JUMP JUMPDEST DUP3 MSTORE POP POP JUMP JUMPDEST PUSH1 0x0 PUSH2 0x25A1 DUP3 DUP5 PUSH2 0x21DC JUMP JUMPDEST PUSH1 0x14 DUP3 ADD SWAP2 POP DUP2 SWAP1 POP SWAP3 SWAP2 POP POP JUMP JUMPDEST PUSH1 0x0 PUSH2 0x25BC DUP3 DUP5 PUSH2 0x22E1 JUMP JUMPDEST SWAP2 POP DUP2 SWAP1 POP SWAP3 SWAP2 POP POP JUMP JUMPDEST PUSH1 0x0 PUSH2 0x25D2 DUP3 PUSH2 0x2488 JUMP JUMPDEST SWAP2 POP PUSH2 0x25DE DUP3 DUP5 PUSH2 0x23CB JUMP JUMPDEST SWAP2 POP DUP2 SWAP1 POP SWAP3 SWAP2 POP POP JUMP JUMPDEST PUSH1 0x0 PUSH1 0x20 DUP3 ADD SWAP1 POP PUSH2 0x25FE PUSH1 0x0 DUP4 ADD DUP5 PUSH2 0x21CD JUMP JUMPDEST SWAP3 SWAP2 POP POP JUMP JUMPDEST PUSH1 0x0 PUSH1 0x20 DUP3 ADD SWAP1 POP PUSH2 0x2619 PUSH1 0x0 DUP4 ADD DUP5 PUSH2 0x21BE JUMP JUMPDEST SWAP3 SWAP2 POP POP JUMP JUMPDEST PUSH1 0x0 PUSH1 0x20 DUP3 ADD SWAP1 POP DUP2 DUP2 SUB PUSH1 0x0 DUP4 ADD MSTORE PUSH2 0x2639 DUP2 DUP5 PUSH2 0x21F3 JUMP JUMPDEST SWAP1 POP SWAP3 SWAP2 POP POP JUMP JUMPDEST PUSH1 0x0 PUSH1 0x20 DUP3 ADD SWAP1 POP PUSH2 0x2656 PUSH1 0x0 DUP4 ADD DUP5 PUSH2 0x2260 JUMP JUMPDEST SWAP3 SWAP2 POP POP JUMP JUMPDEST PUSH1 0x0 PUSH1 0x20 DUP3 ADD SWAP1 POP DUP2 DUP2 SUB PUSH1 0x0 DUP4 ADD MSTORE PUSH2 0x2676 DUP2 DUP5 PUSH2 0x22A8 JUMP JUMPDEST SWAP1 POP SWAP3 SWAP2 POP POP JUMP JUMPDEST PUSH1 0x0 PUSH1 0x40 DUP3 ADD SWAP1 POP DUP2 DUP2 SUB PUSH1 0x0 DUP4 ADD MSTORE PUSH2 0x2698 DUP2 DUP6 PUSH2 0x22A8 JUMP JUMPDEST SWAP1 POP PUSH2 0x26A7 PUSH1 0x20 DUP4 ADD DUP5 PUSH2 0x2260 JUMP JUMPDEST SWAP4 SWAP3 POP POP POP JUMP JUMPDEST PUSH1 0x0 PUSH1 0x20 DUP3 ADD SWAP1 POP DUP2 DUP2 SUB PUSH1 0x0 DUP4 ADD MSTORE PUSH2 0x26C8 DUP2 DUP5 PUSH2 0x2392 JUMP JUMPDEST SWAP1 POP SWAP3 SWAP2 POP POP JUMP JUMPDEST PUSH1 0x0 PUSH1 0x20 DUP3 ADD SWAP1 POP DUP2 DUP2 SUB PUSH1 0x0 DUP4 ADD MSTORE PUSH2 0x26E9 DUP2 PUSH2 0x23FC JUMP JUMPDEST SWAP1 POP SWAP2 SWAP1 POP JUMP JUMPDEST PUSH1 0x0 PUSH1 0x20 DUP3 ADD SWAP1 POP DUP2 DUP2 SUB PUSH1 0x0 DUP4 ADD MSTORE PUSH2 0x2709 DUP2 PUSH2 0x241F JUMP JUMPDEST SWAP1 POP SWAP2 SWAP1 POP JUMP JUMPDEST PUSH1 0x0 PUSH1 0x20 DUP3 ADD SWAP1 POP DUP2 DUP2 SUB PUSH1 0x0 DUP4 ADD MSTORE PUSH2 0x2729 DUP2 PUSH2 0x2442 JUMP JUMPDEST SWAP1 POP SWAP2 SWAP1 POP JUMP JUMPDEST PUSH1 0x0 PUSH1 0x20 DUP3 ADD SWAP1 POP DUP2 DUP2 SUB PUSH1 0x0 DUP4 ADD MSTORE PUSH2 0x2749 DUP2 PUSH2 0x2465 JUMP JUMPDEST SWAP1 POP SWAP2 SWAP1 POP JUMP JUMPDEST PUSH1 0x0 PUSH1 0x20 DUP3 ADD SWAP1 POP DUP2 DUP2 SUB PUSH1 0x0 DUP4 ADD MSTORE PUSH2 0x2769 DUP2 PUSH2 0x24AB JUMP JUMPDEST SWAP1 POP SWAP2 SWAP1 POP JUMP JUMPDEST PUSH1 0x0 PUSH1 0x20 DUP3 ADD SWAP1 POP DUP2 DUP2 SUB PUSH1 0x0 DUP4 ADD MSTORE PUSH2 0x2789 DUP2 PUSH2 0x24CE JUMP JUMPDEST SWAP1 POP SWAP2 SWAP1 POP JUMP JUMPDEST PUSH1 0x0 PUSH1 0x20 DUP3 ADD SWAP1 POP DUP2 DUP2 SUB PUSH1 0x0 DUP4 ADD MSTORE PUSH2 0x27AA DUP2 DUP5 PUSH2 0x24F1 JUMP JUMPDEST SWAP1 POP SWAP3 SWAP2 POP POP JUMP JUMPDEST PUSH1 0x0 PUSH1 0x20 DUP3 ADD SWAP1 POP DUP2 DUP2 SUB PUSH1 0x0 DUP4 ADD MSTORE PUSH2 0x27CC DUP2 DUP5 PUSH2 0x252E JUMP JUMPDEST SWAP1 POP SWAP3 SWAP2 POP POP JUMP JUMPDEST PUSH1 0x0 PUSH1 0xC0 DUP3 ADD SWAP1 POP PUSH2 0x27E9 PUSH1 0x0 DUP4 ADD DUP10 PUSH2 0x2586 JUMP JUMPDEST PUSH2 0x27F6 PUSH1 0x20 DUP4 ADD DUP9 PUSH2 0x2577 JUMP JUMPDEST PUSH2 0x2803 PUSH1 0x40 DUP4 ADD DUP8 PUSH2 0x2586 JUMP JUMPDEST PUSH2 0x2810 PUSH1 0x60 DUP4 ADD DUP7 PUSH2 0x2586 JUMP JUMPDEST DUP2 DUP2 SUB PUSH1 0x80 DUP4 ADD MSTORE PUSH2 0x2822 DUP2 DUP6 PUSH2 0x22A8 JUMP JUMPDEST SWAP1 POP DUP2 DUP2 SUB PUSH1 0xA0 DUP4 ADD MSTORE PUSH2 0x2836 DUP2 DUP5 PUSH2 0x22A8 JUMP JUMPDEST SWAP1 POP SWAP8 SWAP7 POP POP POP POP POP POP POP JUMP JUMPDEST PUSH1 0x0 PUSH2 0x284D PUSH2 0x285E JUMP JUMPDEST SWAP1 POP PUSH2 0x2859 DUP3 DUP3 PUSH2 0x2D3C JUMP JUMPDEST SWAP2 SWAP1 POP JUMP JUMPDEST PUSH1 0x0 PUSH1 0x40 MLOAD SWAP1 POP SWAP1 JUMP JUMPDEST PUSH1 0x0 PUSH8 0xFFFFFFFFFFFFFFFF DUP3 GT ISZERO PUSH2 0x2883 JUMPI PUSH2 0x2882 PUSH2 0x2EF6 JUMP JUMPDEST JUMPDEST PUSH2 0x288C DUP3 PUSH2 0x2F43 JUMP JUMPDEST SWAP1 POP PUSH1 0x20 DUP2 ADD SWAP1 POP SWAP2 SWAP1 POP JUMP JUMPDEST PUSH1 0x0 PUSH8 0xFFFFFFFFFFFFFFFF DUP3 GT ISZERO PUSH2 0x28B4 JUMPI PUSH2 0x28B3 PUSH2 0x2EF6 JUMP JUMPDEST JUMPDEST PUSH2 0x28BD DUP3 PUSH2 0x2F43 JUMP JUMPDEST SWAP1 POP PUSH1 0x20 DUP2 ADD SWAP1 POP SWAP2 SWAP1 POP JUMP JUMPDEST PUSH1 0x0 DUP2 SWAP1 POP PUSH1 0x20 DUP3 ADD SWAP1 POP SWAP2 SWAP1 POP JUMP JUMPDEST PUSH1 0x0 DUP2 SWAP1 POP DUP2 PUSH1 0x0 MSTORE PUSH1 0x20 PUSH1 0x0 KECCAK256 SWAP1 POP SWAP2 SWAP1 POP JUMP JUMPDEST PUSH1 0x0 DUP2 MLOAD SWAP1 POP SWAP2 SWAP1 POP JUMP JUMPDEST PUSH1 0x0 DUP2 MLOAD SWAP1 POP SWAP2 SWAP1 POP JUMP JUMPDEST PUSH1 0x0 DUP2 MLOAD SWAP1 POP SWAP2 SWAP1 POP JUMP JUMPDEST PUSH1 0x0 PUSH1 0x20 DUP3 ADD SWAP1 POP SWAP2 SWAP1 POP JUMP JUMPDEST PUSH1 0x0 DUP3 DUP3 MSTORE PUSH1 0x20 DUP3 ADD SWAP1 POP SWAP3 SWAP2 POP POP JUMP JUMPDEST PUSH1 0x0 DUP3 DUP3 MSTORE PUSH1 0x20 DUP3 ADD SWAP1 POP SWAP3 SWAP2 POP POP JUMP JUMPDEST PUSH1 0x0 DUP3 DUP3 MSTORE PUSH1 0x20 DUP3 ADD SWAP1 POP SWAP3 SWAP2 POP POP JUMP JUMPDEST PUSH1 0x0 DUP2 SWAP1 POP SWAP3 SWAP2 POP POP JUMP JUMPDEST PUSH1 0x0 DUP3 DUP3 MSTORE PUSH1 0x20 DUP3 ADD SWAP1 POP SWAP3 SWAP2 POP POP JUMP JUMPDEST PUSH1 0x0 DUP2 SWAP1 POP SWAP3 SWAP2 POP POP JUMP JUMPDEST PUSH1 0x0 PUSH2 0x2982 DUP3 PUSH2 0x2C90 JUMP JUMPDEST SWAP2 POP PUSH2 0x298D DUP4 PUSH2 0x2C90 JUMP JUMPDEST SWAP3 POP DUP3 PUSH32 0xFFFFFFFFFFFFFFFFFFFFFFFFFFFFFFFFFFFFFFFFFFFFFFFFFFFFFFFFFFFFFFFF SUB DUP3 GT ISZERO PUSH2 0x29C2 JUMPI PUSH2 0x29C1 PUSH2 0x2E3A JUMP JUMPDEST JUMPDEST DUP3 DUP3 ADD SWAP1 POP SWAP3 SWAP2 POP POP JUMP JUMPDEST PUSH1 0x0 PUSH2 0x29D8 DUP3 PUSH2 0x2C90 JUMP JUMPDEST SWAP2 POP PUSH2 0x29E3 DUP4 PUSH2 0x2C90 JUMP JUMPDEST SWAP3 POP DUP3 PUSH2 0x29F3 JUMPI PUSH2 0x29F2 PUSH2 0x2E69 JUMP JUMPDEST JUMPDEST DUP3 DUP3 DIV SWAP1 POP SWAP3 SWAP2 POP POP JUMP JUMPDEST PUSH1 0x0 DUP1 DUP3 SWAP2 POP DUP4 SWAP1 POP JUMPDEST PUSH1 0x1 DUP6 GT ISZERO PUSH2 0x2A48 JUMPI DUP1 DUP7 DIV DUP2 GT ISZERO PUSH2 0x2A24 JUMPI PUSH2 0x2A23 PUSH2 0x2E3A JUMP JUMPDEST JUMPDEST PUSH1 0x1 DUP6 AND ISZERO PUSH2 0x2A33 JUMPI DUP1 DUP3 MUL SWAP2 POP JUMPDEST DUP1 DUP2 MUL SWAP1 POP PUSH2 0x2A41 DUP6 PUSH2 0x2F6E JUMP JUMPDEST SWAP5 POP PUSH2 0x2A08 JUMP JUMPDEST SWAP5 POP SWAP5 SWAP3 POP POP POP JUMP JUMPDEST PUSH1 0x0 PUSH2 0x2A5C DUP3 PUSH2 0x2C90 JUMP JUMPDEST SWAP2 POP PUSH2 0x2A67 DUP4 PUSH2 0x2C90 JUMP JUMPDEST SWAP3 POP PUSH2 0x2A94 PUSH32 0xFFFFFFFFFFFFFFFFFFFFFFFFFFFFFFFFFFFFFFFFFFFFFFFFFFFFFFFFFFFFFFFF DUP5 DUP5 PUSH2 0x2A9C JUMP JUMPDEST SWAP1 POP SWAP3 SWAP2 POP POP JUMP JUMPDEST PUSH1 0x0 DUP3 PUSH2 0x2AAC JUMPI PUSH1 0x1 SWAP1 POP PUSH2 0x2B68 JUMP JUMPDEST DUP2 PUSH2 0x2ABA JUMPI PUSH1 0x0 SWAP1 POP PUSH2 0x2B68 JUMP JUMPDEST DUP2 PUSH1 0x1 DUP2 EQ PUSH2 0x2AD0 JUMPI PUSH1 0x2 DUP2 EQ PUSH2 0x2ADA JUMPI PUSH2 0x2B09 JUMP JUMPDEST PUSH1 0x1 SWAP2 POP POP PUSH2 0x2B68 JUMP JUMPDEST PUSH1 0xFF DUP5 GT ISZERO PUSH2 0x2AEC JUMPI PUSH2 0x2AEB PUSH2 0x2E3A JUMP JUMPDEST JUMPDEST DUP4 PUSH1 0x2 EXP SWAP2 POP DUP5 DUP3 GT ISZERO PUSH2 0x2B03 JUMPI PUSH2 0x2B02 PUSH2 0x2E3A JUMP JUMPDEST JUMPDEST POP PUSH2 0x2B68 JUMP JUMPDEST POP PUSH1 0x20 DUP4 LT PUSH2 0x133 DUP4 LT AND PUSH1 0x4E DUP5 LT PUSH1 0xB DUP5 LT AND OR ISZERO PUSH2 0x2B3E JUMPI DUP3 DUP3 EXP SWAP1 POP DUP4 DUP2 GT ISZERO PUSH2 0x2B39 JUMPI PUSH2 0x2B38 PUSH2 0x2E3A JUMP JUMPDEST JUMPDEST PUSH2 0x2B68 JUMP JUMPDEST PUSH2 0x2B4B DUP5 DUP5 DUP5 PUSH1 0x1 PUSH2 0x29FE JUMP JUMPDEST SWAP3 POP SWAP1 POP DUP2 DUP5 DIV DUP2 GT ISZERO PUSH2 0x2B62 JUMPI PUSH2 0x2B61 PUSH2 0x2E3A JUMP JUMPDEST JUMPDEST DUP2 DUP2 MUL SWAP1 POP JUMPDEST SWAP4 SWAP3 POP POP POP JUMP JUMPDEST PUSH1 0x0 PUSH2 0x2B7A DUP3 PUSH2 0x2C90 JUMP JUMPDEST SWAP2 POP PUSH2 0x2B85 DUP4 PUSH2 0x2C90 JUMP JUMPDEST SWAP3 POP DUP2 PUSH32 0xFFFFFFFFFFFFFFFFFFFFFFFFFFFFFFFFFFFFFFFFFFFFFFFFFFFFFFFFFFFFFFFF DIV DUP4 GT DUP3 ISZERO ISZERO AND ISZERO PUSH2 0x2BBE JUMPI PUSH2 0x2BBD PUSH2 0x2E3A JUMP JUMPDEST JUMPDEST DUP3 DUP3 MUL SWAP1 POP SWAP3 SWAP2 POP POP JUMP JUMPDEST PUSH1 0x0 PUSH2 0x2BD4 DUP3 PUSH2 0x2C90 JUMP JUMPDEST SWAP2 POP PUSH2 0x2BDF DUP4 PUSH2 0x2C90 JUMP JUMPDEST SWAP3 POP DUP3 DUP3 LT ISZERO PUSH2 0x2BF2 JUMPI PUSH2 0x2BF1 PUSH2 0x2E3A JUMP JUMPDEST JUMPDEST DUP3 DUP3 SUB SWAP1 POP SWAP3 SWAP2 POP POP JUMP JUMPDEST PUSH1 0x0 PUSH1 0xFF DUP3 AND SWAP1 POP SWAP2 SWAP1 POP JUMP JUMPDEST PUSH1 0x0 PUSH2 0x2C15 DUP3 PUSH2 0x2C70 JUMP JUMPDEST SWAP1 POP SWAP2 SWAP1 POP JUMP JUMPDEST PUSH1 0x0 PUSH2 0x2C27 DUP3 PUSH2 0x2C70 JUMP JUMPDEST SWAP1 POP SWAP2 SWAP1 POP JUMP JUMPDEST PUSH1 0x0 DUP2 ISZERO ISZERO SWAP1 POP SWAP2 SWAP1 POP JUMP JUMPDEST PUSH1 0x0 PUSH32 0xFFFFFFFFFFFFFFFFFFFFFFFFFFFFFFFFFFFFFFFF000000000000000000000000 DUP3 AND SWAP1 POP SWAP2 SWAP1 POP JUMP JUMPDEST PUSH1 0x0 DUP2 SWAP1 POP SWAP2 SWAP1 POP JUMP JUMPDEST PUSH1 0x0 PUSH20 0xFFFFFFFFFFFFFFFFFFFFFFFFFFFFFFFFFFFFFFFF DUP3 AND SWAP1 POP SWAP2 SWAP1 POP JUMP JUMPDEST PUSH1 0x0 DUP2 SWAP1 POP SWAP2 SWAP1 POP JUMP JUMPDEST PUSH1 0x0 PUSH8 0xFFFFFFFFFFFFFFFF DUP3 AND SWAP1 POP SWAP2 SWAP1 POP JUMP JUMPDEST DUP3 DUP2 DUP4 CALLDATACOPY PUSH1 0x0 DUP4 DUP4 ADD MSTORE POP POP POP JUMP JUMPDEST PUSH1 0x0 JUMPDEST DUP4 DUP2 LT ISZERO PUSH2 0x2CDB JUMPI DUP1 DUP3 ADD MLOAD DUP2 DUP5 ADD MSTORE PUSH1 0x20 DUP2 ADD SWAP1 POP PUSH2 0x2CC0 JUMP JUMPDEST DUP4 DUP2 GT ISZERO PUSH2 0x2CEA JUMPI PUSH1 0x0 DUP5 DUP5 ADD MSTORE JUMPDEST POP POP POP POP JUMP JUMPDEST PUSH1 0x0 PUSH1 0x2 DUP3 DIV SWAP1 POP PUSH1 0x1 DUP3 AND DUP1 PUSH2 0x2D08 JUMPI PUSH1 0x7F DUP3 AND SWAP2 POP JUMPDEST PUSH1 0x20 DUP3 LT DUP2 EQ ISZERO PUSH2 0x2D1C JUMPI PUSH2 0x2D1B PUSH2 0x2E98 JUMP JUMPDEST JUMPDEST POP SWAP2 SWAP1 POP JUMP JUMPDEST PUSH1 0x0 PUSH2 0x2D35 PUSH2 0x2D30 DUP4 PUSH2 0x2F61 JUMP JUMPDEST PUSH2 0x2BFD JUMP JUMPDEST SWAP1 POP SWAP2 SWAP1 POP JUMP JUMPDEST PUSH2 0x2D45 DUP3 PUSH2 0x2F43 JUMP JUMPDEST DUP2 ADD DUP2 DUP2 LT PUSH8 0xFFFFFFFFFFFFFFFF DUP3 GT OR ISZERO PUSH2 0x2D64 JUMPI PUSH2 0x2D63 PUSH2 0x2EF6 JUMP JUMPDEST JUMPDEST DUP1 PUSH1 0x40 MSTORE POP POP POP JUMP JUMPDEST PUSH1 0x0 PUSH2 0x2D78 DUP3 PUSH2 0x2C90 JUMP JUMPDEST SWAP2 POP PUSH32 0xFFFFFFFFFFFFFFFFFFFFFFFFFFFFFFFFFFFFFFFFFFFFFFFFFFFFFFFFFFFFFFFF DUP3 EQ ISZERO PUSH2 0x2DAB JUMPI PUSH2 0x2DAA PUSH2 0x2E3A JUMP JUMPDEST JUMPDEST PUSH1 0x1 DUP3 ADD SWAP1 POP SWAP2 SWAP1 POP JUMP JUMPDEST PUSH1 0x0 PUSH2 0x2DC1 DUP3 PUSH2 0x2DC8 JUMP JUMPDEST SWAP1 POP SWAP2 SWAP1 POP JUMP JUMPDEST PUSH1 0x0 PUSH2 0x2DD3 DUP3 PUSH2 0x2F54 JUMP JUMPDEST SWAP1 POP SWAP2 SWAP1 POP JUMP JUMPDEST PUSH1 0x0 PUSH2 0x2DE5 DUP3 PUSH2 0x2C90 JUMP JUMPDEST SWAP2 POP PUSH2 0x2DF0 DUP4 PUSH2 0x2C90 JUMP JUMPDEST SWAP3 POP DUP3 PUSH2 0x2E00 JUMPI PUSH2 0x2DFF PUSH2 0x2E69 JUMP JUMPDEST JUMPDEST DUP3 DUP3 MOD SWAP1 POP SWAP3 SWAP2 POP POP JUMP JUMPDEST PUSH32 0x4E487B7100000000000000000000000000000000000000000000000000000000 PUSH1 0x0 MSTORE PUSH1 0x1 PUSH1 0x4 MSTORE PUSH1 0x24 PUSH1 0x0 REVERT JUMPDEST PUSH32 0x4E487B7100000000000000000000000000000000000000000000000000000000 PUSH1 0x0 MSTORE PUSH1 0x11 PUSH1 0x4 MSTORE PUSH1 0x24 PUSH1 0x0 REVERT JUMPDEST PUSH32 0x4E487B7100000000000000000000000000000000000000000000000000000000 PUSH1 0x0 MSTORE PUSH1 0x12 PUSH1 0x4 MSTORE PUSH1 0x24 PUSH1 0x0 REVERT JUMPDEST PUSH32 0x4E487B7100000000000000000000000000000000000000000000000000000000 PUSH1 0x0 MSTORE PUSH1 0x22 PUSH1 0x4 MSTORE PUSH1 0x24 PUSH1 0x0 REVERT JUMPDEST PUSH32 0x4E487B7100000000000000000000000000000000000000000000000000000000 PUSH1 0x0 MSTORE PUSH1 0x32 PUSH1 0x4 MSTORE PUSH1 0x24 PUSH1 0x0 REVERT JUMPDEST PUSH32 0x4E487B7100000000000000000000000000000000000000000000000000000000 PUSH1 0x0 MSTORE PUSH1 0x41 PUSH1 0x4 MSTORE PUSH1 0x24 PUSH1 0x0 REVERT JUMPDEST PUSH1 0x0 DUP1 REVERT JUMPDEST PUSH1 0x0 DUP1 REVERT JUMPDEST PUSH1 0x0 DUP1 REVERT JUMPDEST PUSH1 0x0 DUP1 REVERT JUMPDEST PUSH1 0x0 DUP1 REVERT JUMPDEST PUSH1 0x0 DUP1 REVERT JUMPDEST PUSH1 0x0 PUSH1 0x1F NOT PUSH1 0x1F DUP4 ADD AND SWAP1 POP SWAP2 SWAP1 POP JUMP JUMPDEST PUSH1 0x0 DUP2 PUSH1 0x60 SHL SWAP1 POP SWAP2 SWAP1 POP JUMP JUMPDEST PUSH1 0x0 DUP2 PUSH1 0x0 SHR SWAP1 POP SWAP2 SWAP1 POP JUMP JUMPDEST PUSH1 0x0 DUP2 PUSH1 0x1 SHR SWAP1 POP SWAP2 SWAP1 POP JUMP JUMPDEST PUSH32 0x736C6963696E67206F7574206F662072616E6765000000000000000000000000 PUSH1 0x0 DUP3 ADD MSTORE POP JUMP JUMPDEST PUSH32 0x44617461636170206E6F7420636C61696D61626C650000000000000000000000 PUSH1 0x0 DUP3 ADD MSTORE POP JUMP JUMPDEST PUSH32 0x46656520746F6F206C6F77000000000000000000000000000000000000000000 PUSH1 0x0 DUP3 ADD MSTORE POP JUMP JUMPDEST PUSH32 0x726573706F6E736520636F646563206E6F7420737570706F7274656400000000 PUSH1 0x0 DUP3 ADD MSTORE POP JUMP JUMPDEST PUSH32 0x6163746F72206572726F7220636F6465202D0000000000000000000000000000 PUSH1 0x0 DUP3 ADD MSTORE POP JUMP JUMPDEST PUSH32 0x496E76616C69642043424F520000000000000000000000000000000000000000 PUSH1 0x0 DUP3 ADD MSTORE POP JUMP JUMPDEST PUSH32 0x4F6E6C79204F776E657200000000000000000000000000000000000000000000 PUSH1 0x0 DUP3 ADD MSTORE POP JUMP JUMPDEST PUSH2 0x30A3 DUP2 PUSH2 0x2C0A JUMP JUMPDEST DUP2 EQ PUSH2 0x30AE JUMPI PUSH1 0x0 DUP1 REVERT JUMPDEST POP JUMP JUMPDEST PUSH2 0x30BA DUP2 PUSH2 0x2C1C JUMP JUMPDEST DUP2 EQ PUSH2 0x30C5 JUMPI PUSH1 0x0 DUP1 REVERT JUMPDEST POP JUMP JUMPDEST PUSH2 0x30D1 DUP2 PUSH2 0x2C2E JUMP JUMPDEST DUP2 EQ PUSH2 0x30DC JUMPI PUSH1 0x0 DUP1 REVERT JUMPDEST POP JUMP JUMPDEST PUSH2 0x30E8 DUP2 PUSH2 0x2C3A JUMP JUMPDEST DUP2 EQ PUSH2 0x30F3 JUMPI PUSH1 0x0 DUP1 REVERT JUMPDEST POP JUMP JUMPDEST PUSH2 0x30FF DUP2 PUSH2 0x2C66 JUMP JUMPDEST DUP2 EQ PUSH2 0x310A JUMPI PUSH1 0x0 DUP1 REVERT JUMPDEST POP JUMP JUMPDEST PUSH2 0x3116 DUP2 PUSH2 0x2C90 JUMP JUMPDEST DUP2 EQ PUSH2 0x3121 JUMPI PUSH1 0x0 DUP1 REVERT JUMPDEST POP JUMP JUMPDEST PUSH2 0x312D DUP2 PUSH2 0x2C9A JUMP JUMPDEST DUP2 EQ PUSH2 0x3138 JUMPI PUSH1 0x0 DUP1 REVERT JUMPDEST POP JUMP INVALID LOG2 PUSH5 0x6970667358 0x22 SLT KECCAK256 0xAD DUP6 STOP 0xB9 MULMOD SWAP14 0xB3 PUSH18 0xB232CE5D9B786D2EEE0F7D6656F0269943A1 CODESIZE 0xB4 PUSH32 0x12B38C64736F6C63430008070033000000000000000000000000000000000000 "
		},
		"gasEstimates": {
			"creation": {
				"codeDepositCost": "2531400",
				"executionCost": "infinite",
				"totalCost": "infinite"
			},
			"external": {
				"addNotary(address)": "73392",
				"claimDataCap()": "infinite",
				"clientOwner()": "2602",
				"convert(bytes20)": "infinite",
				"dataCapThreshold()": "infinite",
				"getBalance()": "infinite",
				"getTotalAllowanceRequested()": "infinite",
				"getnotaries()": "infinite",
				"isNotaryStakingHere(address)": "2950",
				"makeDeal((bytes,bool))": "infinite",
				"name()": "infinite",
				"notaries(uint256)": "5001",
				"notariesSet(address)": "2934"
			},
			"internal": {
				"_getBalance()": "infinite"
			}
		},
		"methodIdentifiers": {
			"addNotary(address)": "0588565f",
			"claimDataCap()": "1bff1285",
			"clientOwner()": "f126148d",
			"convert(bytes20)": "6124d80a",
			"dataCapThreshold()": "b933f574",
			"getBalance()": "12065fe0",
			"getTotalAllowanceRequested()": "617df5d1",
			"getnotaries()": "a908d700",
			"isNotaryStakingHere(address)": "9d643740",
			"makeDeal((bytes,bool))": "d1bfd337",
			"name()": "06fdde03",
			"notaries(uint256)": "6d4b76d5",
			"notariesSet(address)": "31335555"
		}
	},
	"abi": [
		{
			"inputs": [
				{
					"components": [
						{
							"internalType": "bytes",
							"name": "val",
							"type": "bytes"
						},
						{
							"internalType": "bool",
							"name": "neg",
							"type": "bool"
						}
					],
					"internalType": "struct BigInt",
					"name": "_totalAllowanceRequested",
					"type": "tuple"
				},
				{
					"internalType": "address",
					"name": "_clientOwner",
					"type": "address"
				},
				{
					"internalType": "address",
					"name": "_smartNotary",
					"type": "address"
				},
				{
					"internalType": "bytes",
					"name": "_name",
					"type": "bytes"
				}
			],
			"stateMutability": "nonpayable",
			"type": "constructor"
		},
		{
			"anonymous": false,
			"inputs": [
				{
					"indexed": false,
					"internalType": "bytes",
					"name": "reason",
					"type": "bytes"
				}
			],
			"name": "DealDenied",
			"type": "event"
		},
		{
			"anonymous": false,
			"inputs": [
				{
					"indexed": false,
					"internalType": "uint256",
					"name": "amount",
					"type": "uint256"
				}
			],
			"name": "DealInitialized",
			"type": "event"
		},
		{
			"anonymous": false,
			"inputs": [
				{
					"indexed": false,
					"internalType": "uint256",
					"name": "amount",
					"type": "uint256"
				}
			],
			"name": "RefillAsked",
			"type": "event"
		},
		{
			"inputs": [
				{
					"internalType": "address payable",
					"name": "notary",
					"type": "address"
				}
			],
			"name": "addNotary",
			"outputs": [],
			"stateMutability": "nonpayable",
			"type": "function"
		},
		{
			"inputs": [],
			"name": "claimDataCap",
			"outputs": [
				{
					"internalType": "bool",
					"name": "",
					"type": "bool"
				}
			],
			"stateMutability": "payable",
			"type": "function"
		},
		{
			"inputs": [],
			"name": "clientOwner",
			"outputs": [
				{
					"internalType": "address",
					"name": "",
					"type": "address"
				}
			],
			"stateMutability": "view",
			"type": "function"
		},
		{
			"inputs": [
				{
					"internalType": "bytes20",
					"name": "_0xAddress",
					"type": "bytes20"
				}
			],
			"name": "convert",
			"outputs": [
				{
					"internalType": "bytes",
					"name": "f4Address",
					"type": "bytes"
				}
			],
			"stateMutability": "pure",
			"type": "function"
		},
		{
			"inputs": [],
			"name": "dataCapThreshold",
			"outputs": [
				{
					"internalType": "bytes",
					"name": "val",
					"type": "bytes"
				},
				{
					"internalType": "bool",
					"name": "neg",
					"type": "bool"
				}
			],
			"stateMutability": "view",
			"type": "function"
		},
		{
			"inputs": [],
			"name": "getBalance",
			"outputs": [
				{
					"components": [
						{
							"internalType": "bytes",
							"name": "val",
							"type": "bytes"
						},
						{
							"internalType": "bool",
							"name": "neg",
							"type": "bool"
						}
					],
					"internalType": "struct BigInt",
					"name": "balance",
					"type": "tuple"
				}
			],
			"stateMutability": "nonpayable",
			"type": "function"
		},
		{
			"inputs": [],
			"name": "getTotalAllowanceRequested",
			"outputs": [
				{
					"components": [
						{
							"internalType": "bytes",
							"name": "val",
							"type": "bytes"
						},
						{
							"internalType": "bool",
							"name": "neg",
							"type": "bool"
						}
					],
					"internalType": "struct BigInt",
					"name": "",
					"type": "tuple"
				}
			],
			"stateMutability": "view",
			"type": "function"
		},
		{
			"inputs": [],
			"name": "getnotaries",
			"outputs": [
				{
					"internalType": "address payable[]",
					"name": "",
					"type": "address[]"
				}
			],
			"stateMutability": "view",
			"type": "function"
		},
		{
			"inputs": [
				{
					"internalType": "address",
					"name": "addr",
					"type": "address"
				}
			],
			"name": "isNotaryStakingHere",
			"outputs": [
				{
					"internalType": "bool",
					"name": "",
					"type": "bool"
				}
			],
			"stateMutability": "view",
			"type": "function"
		},
		{
			"inputs": [
				{
					"components": [
						{
							"internalType": "bytes",
							"name": "val",
							"type": "bytes"
						},
						{
							"internalType": "bool",
							"name": "neg",
							"type": "bool"
						}
					],
					"internalType": "struct BigInt",
					"name": "_requestedAmount",
					"type": "tuple"
				}
			],
			"name": "makeDeal",
			"outputs": [],
			"stateMutability": "nonpayable",
			"type": "function"
		},
		{
			"inputs": [],
			"name": "name",
			"outputs": [
				{
					"internalType": "bytes",
					"name": "",
					"type": "bytes"
				}
			],
			"stateMutability": "view",
			"type": "function"
		},
		{
			"inputs": [
				{
					"internalType": "uint256",
					"name": "",
					"type": "uint256"
				}
			],
			"name": "notaries",
			"outputs": [
				{
					"internalType": "address payable",
					"name": "",
					"type": "address"
				}
			],
			"stateMutability": "view",
			"type": "function"
		},
		{
			"inputs": [
				{
					"internalType": "address",
					"name": "",
					"type": "address"
				}
			],
			"name": "notariesSet",
			"outputs": [
				{
					"internalType": "bool",
					"name": "",
					"type": "bool"
				}
			],
			"stateMutability": "view",
			"type": "function"
		}
	]
}